:020000040800F2
:100000000028002075170008391500083F15000862
:10001000451500084B1500085115000800000000A8
:10002000000000000000000000000000571500085C
:1000300063150008000000006F1500087B1500081C
:10004000BD170008BD170008BD170008BD17000840
:10005000BD170008BD17000889150008A91500087C
:10006000BD170008BD170008BD170008BD17000820
:10007000BD170008BD170008BD170008BD17000810
:10008000BD170008BD170008BD170008BD17000800
:10009000BD170008BD170008BD170008BD170008F0
:1000A000BD170008BD170008BD170008BD170008E0
:1000B000C9150008BD17000800000000BD170008A2
:1000C000BD1700080000000000000000BD17000878
:1000D00000000000BD170008BD1700080000000068
:1000E000BD170008BD170008BD170008000000007C
:1000F0000000000000000000000000000000000000
:0C01000000000000000000005FF808F1A3
:1001100010B5054C237833B9044B13B10448AFF341
:1001200000800123237010BDDC01002000000000CE
:100130005C67000808B5034B1BB103490348AFF3E4
:10014000008008BD00000000E00100205C6700089E
:10015000034613F8012B002AFBD1181A0138704707
:1001600081F0004102E000BF83F0004330B54FEA68
:1001700041044FEA430594EA050F08BF90EA020FD5
:100180001FBF54EA000C55EA020C7FEA645C7FEA68
:10019000655C00F0E2804FEA5454D4EB5555B8BF8B
:1001A0006D420CDD2C4480EA020281EA030382EAFC
:1001B000000083EA010180EA020281EA0303362D8E
:1001C00088BF30BD11F0004F4FEA01314FF4801C61
:1001D0004CEA113102D0404261EB410113F0004F73
:1001E0004FEA03334CEA133302D0524263EB43032A
:1001F00094EA050F00F0A780A4F10104D5F1200EC8
:100200000DDB02FA0EFC22FA05F2801841F1000122
:1002100003FA0EF2801843FA05F359410EE0A5F1F6
:1002200020050EF1200E012A03FA0EFC28BF4CF027
:10023000020C43FA05F3C01851EBE37101F00045DD
:1002400007D54FF0000EDCF1000C7EEB00006EEBEA
:100250000101B1F5801F1BD3B1F5001F0CD3490874
:100260005FEA30004FEA3C0C04F101044FEA4452CB
:1002700012F5800F80F09A80BCF1004F08BF5FEA52
:10028000500C50F1000041EB045141EA050130BD32
:100290005FEA4C0C404141EB0101013C28BFB1F544
:1002A000801FE9D291F0000F04BF01460020B1FA8F
:1002B00081F308BF2033A3F10B03B3F120020CDA62
:1002C0000C3208DD02F1140CC2F10C0201FA0CF040
:1002D00021FA02F10CE002F11402D8BFC2F1200CA5
:1002E00001FA02F120FA0CFCDCBF41EA0C0190405B
:1002F000E41AA2BF01EB0451294330BD6FEA0404A4
:100300001F3C1CDA0C340EDC04F11404C4F120028E
:1003100020FA04F001FA02F340EA030021FA04F3A0
:1003200045EA030130BDC4F10C04C4F1200220FAF7
:1003300002F001FA04F340EA0300294630BD21FA35
:1003400004F0294630BD94F0000F83F4801306BFFB
:1003500081F480110134013D4EE77FEA645C18BFEF
:100360007FEA655C29D094EA050F08BF90EA020F86
:1003700005D054EA000C04BF1946104630BD91EA7E
:10038000030F1EBF0021002030BD5FEA545C05D181
:100390004000494128BF41F0004130BD14F58004C0
:1003A0003CBF01F5801130BD01F0004545F0FE4134
:1003B00041F470014FF0000030BD7FEA645C1ABF69
:1003C000194610467FEA655C1CBF0B46024650EAA0
:1003D000013406BF52EA033591EA030F41F40021CC
:1003E00030BD00BF90F0000F04BF0021704730B552
:1003F0004FF4806404F132044FF000054FF0000127
:1004000050E700BF90F0000F04BF0021704730B5E7
:100410004FF4806404F1320410F0004548BF4042BC
:100420004FF000013EE700BF42004FEAE2014FEA11
:1004300031014FEA02701FBF12F07F4393F07F4FEC
:1004400081F06051704732F07F4208BF704793F0EF
:100450007F4F04BF41F40021704730B54FF4607402
:1004600001F0004521F000411CE700BF50EA010205
:1004700008BF704730B54FF000050AE050EA0102AE
:1004800008BF704730B511F0004502D5404261EB1E
:1004900041014FF4806404F132045FEA915C3FF45F
:1004A000D8AE4FF003025FEADC0C18BF03325FEAFC
:1004B000DC0C18BF033202EBDC02C2F1200300FAAD
:1004C00003FC20FA02F001FA03FE40EA0E0021FAD2
:1004D00002F11444BDE600BF70B54FF0FF0C4CF4C0
:1004E000E06C1CEA11541DBF1CEA135594EA0C0F72
:1004F00095EA0C0F00F0DEF82C4481EA030621EAAD
:100500004C5123EA4C5350EA013518BF52EA0335E7
:1005100041F4801143F4801338D0A0FB02CE4FF099
:100520000005E1FB02E506F00042E0FB03E54FF0C9
:100530000006E1FB03569CF0000F18BF4EF0010EC1
:10054000A4F1FF04B6F5007F64F5407404D25FEABD
:100550004E0E6D4146EB060642EAC62141EA555170
:100560004FEAC52040EA5E504FEACE2EB4F1FD0CB2
:1005700088BFBCF5E06F1ED8BEF1004F08BF5FEA30
:10058000500E50F1000041EB045170BD06F00046E2
:1005900046EA010140EA020081EA0301B4EB5C048F
:1005A000C2BFD4EB0C0541EA045170BD41F4801187
:1005B0004FF0000E013C00F3AB8014F1360FDEBFAC
:1005C000002001F0004170BDC4F10004203C35DA88
:1005D0000C341BDC04F11404C4F1200500FA05F30B
:1005E00020FA04F001FA05F240EA020001F00042AC
:1005F00021F0004110EBD37021FA04F642EB060122
:100600005EEA430E08BF20EAD37070BDC4F10C044B
:10061000C4F1200500FA04F320FA05F001FA04F20F
:1006200040EA020001F0004110EBD37041F10001FB
:100630005EEA430E08BF20EAD37070BDC4F1200506
:1006400000FA05F24EEA020E20FA04F301FA05F26E
:1006500043EA020321FA04F001F0004121FA04F216
:1006600020EA020000EBD3705EEA430E08BF20EAE6
:10067000D37070BD94F0000F0FD101F00046400020
:1006800041EB010111F4801F08BF013CF7D041EAA2
:10069000060195F0000F18BF704703F000465200A6
:1006A00043EB030313F4801F08BF013DF7D043EA77
:1006B0000603704794EA0C0F0CEA135518BF95EA2D
:1006C0000C0F0CD050EA410618BF52EA4306D1D1B4
:1006D00081EA030101F000414FF0000070BD50EAD3
:1006E000410606BF1046194652EA430619D094EA5D
:1006F0000C0F02D150EA013613D195EA0C0F05D147
:1007000052EA03361CBF104619460AD181EA03019A
:1007100001F0004141F0FE4141F470014FF0000052
:1007200070BD41F0FE4141F4780170BD70B54FF0ED
:10073000FF0C4CF4E06C1CEA11541DBF1CEA13556D
:1007400094EA0C0F95EA0C0F00F0A7F8A4EB05044F
:1007500081EA030E52EA03354FEA013100F0888046
:100760004FEA03334FF0805545EA131343EA12630F
:100770004FEA022245EA111545EA10654FEA0026C4
:100780000EF000419D4208BF964244F1FD0404F57D
:10079000407402D25B084FEA3202B61A65EB0305D9
:1007A0005B084FEA32024FF480104FF4002CB6EB96
:1007B000020E75EB030E22BFB61A754640EA0C0016
:1007C0005B084FEA3202B6EB020E75EB030E22BF56
:1007D000B61A754640EA5C005B084FEA3202B6EB97
:1007E000020E75EB030E22BFB61A754640EA9C0056
:1007F0005B084FEA3202B6EB020E75EB030E22BF26
:10080000B61A754640EADC0055EA060E18D04FEAE3
:10081000051545EA16754FEA06164FEAC30343EA83
:1008200052734FEAC2025FEA1C1CC0D111F4801F50
:100830000BD141EA00014FF000004FF0004CB6E749
:1008400011F4801F04BF01430020B4F1FD0C88BFE8
:10085000BCF5E06F3FF6AFAEB5EB030C04BFB6EBF3
:10086000020C5FEA500C50F1000041EB045170BDE6
:100870000EF0004E4EEA113114EB5C04C2BFD4EB13
:100880000C0541EA045170BD41F480114FF0000E97
:10089000013C90E645EA060E8DE60CEA135594EA13
:1008A0000C0F08BF95EA0C0F3FF43BAF94EA0C0F16
:1008B0000AD150EA01347FF434AF95EA0C0F7FF48B
:1008C00025AF104619462CE795EA0C0F06D152EADF
:1008D00003353FF4FDAE1046194622E750EA4106C3
:1008E00018BF52EA43067FF4C5AE50EA41047FF4D4
:1008F0000DAF52EA43057FF4EBAE12E74FF0FF3C39
:1009000006E000BF4FF0010C02E000BF4FF0010C09
:100910004DF804CD4FEA410C7FEA6C5C4FEA430C82
:1009200018BF7FEA6C5C1BD001B050EA410C0CBFD1
:1009300052EA430C91EA030F02BF90EA020F002033
:10094000704710F1000F91EA030F58BF994208BF9A
:1009500090422CBFD8176FEAE37040F00100704757
:100960004FEA410C7FEA6C5C02D150EA013C07D1AE
:100970004FEA430C7FEA6C5CD6D152EA033CD3D0F9
:100980005DF8040B704700BF8446104662468C46F3
:100990001946634600E000BF01B5FFF7B7FF002826
:1009A00048BF10F1000F01BD4DF808EDFFF7F4FF4F
:1009B0000CBF012000205DF808FB00BF4DF808EDDA
:1009C000FFF7EAFF34BF012000205DF808FB00BFFD
:1009D0004DF808EDFFF7E0FF94BF012000205DF81F
:1009E00008FB00BF4DF808EDFFF7CEFF94BF0120D4
:1009F00000205DF808FB00BF4DF808EDFFF7C4FFCD
:100A000034BF012000205DF808FB00BF4FEA410C15
:100A10007FEA6C5C02D150EA013C0AD14FEA430CF8
:100A20007FEA6C5C02D152EA033C02D14FF0000035
:100A300070474FF0010070474FEA410212F5001273
:100A400015D211D56FF47873B3EB625212D94FEA15
:100A5000C12343F0004343EA505311F0004F23FAFF
:100A600002F018BF404270474FF00000704750EA54
:100A7000013005D111F0004008BF6FF00040704711
:100A80004FF00000704700BF4FEA4102B2F1E0436F
:100A900024BFB3F5001CDCF1FE5C0DD901F0004C65
:100AA0004FEAC0024CEA5070B2F1004F40EB8300B5
:100AB00008BF20F00100704711F0804F21D113F1E1
:100AC0003872BCBF01F00040704741F480114FEA1A
:100AD0005252C2F11802C2F1200C10FA0CF320FAA3
:100AE00002F018BF40F001004FEAC1234FEAD323C0
:100AF00003FA0CFC40EA0C0023FA02F34FEA43032A
:100B0000CCE77FEA625307D150EA01331EBF4FF0B2
:100B1000FE4040F44000704701F0004040F0FE40CD
:100B200040F40000704700BF4FF0FF0C1CEAD052A9
:100B30001EBF1CEAD15392EA0C0F93EA0C0F6FD040
:100B40001A4480EA010C400218BF5FEA41211ED01E
:100B50004FF0006343EA501043EA5111A0FB01310A
:100B60000CF00040B1F5000F3EBF490041EAD371DF
:100B70005B0040EA010062F17F02FD2A1DD8B3F15B
:100B8000004F40EBC25008BF20F00100704790F0CA
:100B9000000F0CF0004C08BF49024CEA502040EA1C
:100BA00051207F3AC2BFD2F1FF0340EAC2507047E2
:100BB00040F400004FF00003013A5DDC12F1190F20
:100BC000DCBF00F000407047C2F10002410021FA92
:100BD00002F1C2F1200200FA02FC5FEA310040F1AA
:100BE000000053EA4C0308BF20EADC70704792F023
:100BF000000F00F0004C02BF400010F4000F013A5B
:100C0000F9D040EA0C0093F0000F01F0004C02BF55
:100C1000490011F4000F013BF9D041EA0C018FE7C4
:100C20000CEAD15392EA0C0F18BF93EA0C0F0AD0CA
:100C300030F0004C18BF31F0004CD8D180EA0100F0
:100C400000F00040704790F0000F17BF90F0004F89
:100C5000084691F0000F91F0004F14D092EA0C0F6B
:100C600001D142020FD193EA0C0F03D14B0218BFFE
:100C7000084608D180EA010000F0004040F0FE4044
:100C800040F40000704740F0FE4040F440007047E0
:100C90004FF0FF0C1CEAD0521EBF1CEAD15392EA5F
:100CA0000C0F93EA0C0F69D0A2EB030280EA010C4F
:100CB00049024FEA402037D04FF0805343EA1111E8
:100CC00043EA10130CF000408B4238BF5B0042F146
:100CD0007D024FF4000C8B4224BF5B1A40EA0C00EB
:100CE000B3EB510F24BFA3EB510340EA5C00B3EB1D
:100CF000910F24BFA3EB910340EA9C00B3EBD10F0B
:100D000024BFA3EBD10340EADC001B0118BF5FEA5C
:100D10001C1CE0D1FD2A3FF650AF8B4240EBC25085
:100D200008BF20F0010070470CF0004C4CEA502046
:100D30007F32C2BFD2F1FF0340EAC250704740F495
:100D400000004FF00003013A37E792F0000F00F087
:100D5000004C02BF400010F4000F013AF9D040EA05
:100D60000C0093F0000F01F0004C02BF490011F499
:100D7000000F013BF9D041EA0C0195E70CEAD15391
:100D800092EA0C0F08D142027FF47DAF93EA0C0F78
:100D90007FF470AF084676E793EA0C0F04D14B025C
:100DA0003FF44CAF08466EE730F0004C18BF31F00E
:100DB000004CCAD130F000427FF45CAF31F0004308
:100DC0007FF43CAF5FE700BF4FF0FF3C06E000BFA1
:100DD0004FF0010C02E000BF4FF0010C4DF804CDC4
:100DE0004FEA40024FEA41037FEA226C18BF7FEAD4
:100DF000236C11D001B052EA530C18BF90EA010FD6
:100E000058BFB2EB030088BFC81738BF6FEAE17064
:100E100018BF40F0010070477FEA226C02D15FEA00
:100E2000402C05D17FEA236CE4D15FEA412CE1D06C
:100E30005DF8040B704700BF844608466146FFE733
:100E40000FB5FFF7C9FF002848BF10F1000F0FBD15
:100E50004DF808EDFFF7F4FF0CBF012000205DF80E
:100E600008FB00BF4DF808EDFFF7EAFF34BF012093
:100E700000205DF808FB00BF4DF808EDFFF7E0FF2C
:100E800094BF012000205DF808FB00BF4DF808ED7D
:100E9000FFF7D2FF94BF012000205DF808FB00BFE0
:100EA0004DF808EDFFF7C8FF34BF012000205DF8C2
:100EB00008FB00BF80B582B000AF03460A46FB7155
:100EC0001346BB71BB791A462021224801F0DEFB94
:100ED000012210211F4801F0D9FB012000F0D2FCB3
:100EE000FB7903F00103DBB21A460821194801F02F
:100EF000CDFBFB795B08DBB203F00103DBB21A46E2
:100F00000421144801F0C2FBFB799B08DBB203F01B
:100F10000103DBB21A4602210E4801F0B7FBFB7950
:100F2000DB08DBB203F00103DBB21A4601210948FA
:100F300001F0ACFB012000F0A5FC002210210548C7
:100F400001F0A4FB012000F09DFC00BF0837BD4666
:100F500080BD00BF000C014080B582B000AF0346E9
:100F60000A46FB711346BB71FB791B09DBB2BA79E8
:100F700011461846FFF79EFFFB7903F00F03DBB223
:100F8000BA7911461846FFF795FF00BF0837BD46EE
:100F900080BD80B584B000AF78607868FFF7D8F87E
:100FA0000346BB600023FB600AE0FB687A681344D9
:100FB0001B7801211846FFF7CFFFFB680133FB6068
:100FC000FA68BB689A42F0DB00BF00BF1037BD462D
:100FD00080BD000080B584B000AF78607868FFF70E
:100FE00023FA02460B4607F10800064903F07EF992
:100FF00007F108031846FFF7CCFF00BF1037BD46C6
:1010000080BD00BF7867000880B500AF00210320D5
:10101000FFF750FF052000F035FC00210320FFF70B
:1010200049FF012000F02EFC00210320FFF742FFC2
:10103000012000F027FC00210220FFF73BFF0120E8
:1010400000F020FC00212820FFF786FF012000F09F
:1010500019FC00210C20FFF77FFF012000F012FC9B
:1010600000BF80BD0000000080B500AF00F0A8FB0D
:1010700000F08EF800F068F900F018F900F0D8F8E8
:10108000394802F00DF9FFF7BFFF3848FFF781FF3D
:10109000374800F0F3FC6421354800F0C9FD3448BE
:1010A00000F0CCFE0346334A1360314800F094FD53
:1010B000304B1B681846FFF795F927A3D3E90023A7
:1010C000FFF70AFA02460B461046194624A3D3E955
:1010D0000023FFF72BFB02460B4610461946FFF78D
:1010E000D3FC0346244A1360234B1B68234918464C
:1010F000FFF7CEFD03461A461F4B1A601E4B1B68B6
:101100001F491846FFF7C2FE0346002B0DD01D48AD
:10111000FFF73FFF4FF4FA7000F0B4FB01224FF4E9
:101120008071194801F0B2FA11E000224FF4807189
:10113000154801F0ABFA104B1B681846FFF74AFF41
:101140001248FFF726FF4FF4FA7000F09BFB0021D6
:101150000120FFF701FF98E70000000000C8A94048
:101160000000000000FEAF403C0200208067000845
:101170000C020020F801002008020020000020419D
:1011800000008C428C670008000C0140906700084A
:1011900080B594B000AF07F128032822002118463B
:1011A00002F03CFC07F1140300221A605A609A60B6
:1011B000DA601A613B1D00221A605A609A60DA6098
:1011C0000223BB620123BB631023FB6300237B6408
:1011D00007F12803184601F0ADFA0346002B01D0B1
:1011E00000F012F90F237B610023BB610023FB6138
:1011F00000233B6200237B6207F1140300211846A1
:1012000001F018FD0346002B01D000F0FDF8022389
:101210007B600023FB603B1D184601F085FE034602
:10122000002B01D000F0F0F800BF5037BD4680BD64
:1012300080B584B000AF3B1D00221A605A609A60EE
:10124000184B194A1A60174B00229A60154B00225E
:101250001A73144B00221A75124B4FF46022DA6194
:10126000104B00225A600F4B01221A610D4800F00A
:101270002DFB0346002B01D000F0C6F802237B6053
:101280000123BB600023FB603B1D1946054800F0AD
:10129000E1FD0346002B01D000F0B6F800BF103787
:1012A000BD4680BD0C0200200024014080B586B000
:1012B00000AF07F1080300221A605A609A60DA60F2
:1012C0003B4600221A605A601E4B4FF080421A6063
:1012D0001C4B4FF4FA525A601A4B00229A60194B79
:1012E00040F2E732DA60174B00221A61154B0022F8
:1012F0009A61144801F084FF0346002B01D000F0EE
:1013000083F84FF48053BB6007F1080319460D487A
:1013100002F002F90346002B01D000F075F800231B
:101320003B6000237B603B461946064802F0E2FA28
:101330000346002B01D000F067F800BF1837BD4608
:1013400080BD00BF3C02002080B586B000AF07F131
:10135000080300221A605A609A60DA60264B9B6983
:10136000254A43F004039361234B9B6903F0040374
:101370007B607B68204B9B691F4A43F008039361A5
:101380001D4B9B6903F008033B603B68002245F25C
:101390003F111A4801F07AF90323BB60184BFB6038
:1013A00002233B6107F108031946164800F0F4FFD9
:1013B00045F23F13BB600123FB6000233B61022326
:1013C0007B6107F1080319460C4800F0E5FF002295
:1013D0000021062000F0A9FF062000F0C2FF002235
:1013E0000021072000F0A1FF072000F0BAFF00BF96
:1013F0001837BD4680BD00BF00100240000C014000
:10140000000011100008014080B400AF72B600BFA8
:10141000FEE7000080B485B000AF154B9B69144A0D
:1014200043F001039361124B9B6903F00103BB601E
:10143000BB680F4BDB690E4A43F08053D3610C4B02
:10144000DB6903F080537B607B680A4B5B68FB6061
:10145000FB6823F0E063FB60FB6843F08063FB60A4
:10146000044AFB68536000BF1437BD4680BC704718
:10147000001002400000014080B588B000AF7860E5
:1014800007F1100300221A605A609A60DA607B68E4
:101490001B68144A934221D1134B9B69124A43F4AF
:1014A00000739361104B9B6903F40073FB60FB684E
:1014B0000D4B9B690C4A43F0040393610A4B9B69F3
:1014C00003F00403BB60BB6804233B6103237B611F
:1014D00007F110031946054800F05EFF00BF2037F2
:1014E000BD4680BD002401400010024000080140BC
:1014F00080B584B000AF78607B681B68B3F1804F23
:1015000013D10C4BDB690B4A43F00103D361094B48
:10151000DB6903F00103FB60FB68002200211C2053
:1015200000F003FF1C2000F01CFF00BF1037BD4679
:1015300080BD00BF0010024080B400AFFEE780B461
:1015400000AFFEE780B400AFFEE780B400AFFEE777
:1015500080B400AFFEE780B400AF00BFBD4680BCE2
:10156000704780B400AF00BFBD4680BC704780B4F8
:1015700000AF00BFBD4680BC704780B500AF00F033
:1015800065F900BF80BD000080B500AF012001F00B
:10159000AFF801224FF48051024801F077F800BF04
:1015A00080BD00BF000C014080B500AF022001F0FB
:1015B0009FF800224FF48051024801F067F800BF05
:1015C00080BD00BF000C014080B500AF044801F0B1
:1015D000B3FE4FF48041034801F070F800BF80BDB6
:1015E0003C020020000C014080B400AF01231846EB
:1015F000BD4680BC704780B582B000AF786039606E
:1016000002F0E2F9034616221A604FF0FF33184643
:101610000837BD4680BD80B582B000AF78604FF01E
:10162000FF317868FFF7E7FFFEE780B586B000AFCF
:10163000F860B9607A6000237B610AE0AFF3008054
:101640000146BB685A1CBA60CAB21A707B69013382
:101650007B617A697B689A42F0DB7B6818461837B1
:10166000BD4680BD80B586B000AFF860B9607A60D5
:1016700000237B6109E0BB685A1CBA601B781846DE
:10168000AFF300807B6901337B617A697B689A42A2
:10169000F1DB7B6818461837BD4680BD80B483B047
:1016A00000AF78604FF0FF3318460C37BD4680BC62
:1016B000704780B483B000AF786039603B684FF406
:1016C00000525A60002318460C37BD4680BC704754
:1016D00080B483B000AF7860012318460C37BD4654
:1016E00080BC704780B485B000AFF860B9607A60A4
:1016F000002318461437BD4680BC704780B586B0BD
:1017000000AF7860144A154BD31A7B617B693B614B
:10171000134B1B68002B02D1114B124A1A60104B5D
:101720001A687B6813443A699A4207D202F04CF96E
:1017300003460C221A604FF0FF3309E0084B1B6888
:10174000FB60074B1A687B681344054A1360FB680B
:1017500018461837BD4680BD002800200004000050
:10176000FC0100209802002080B400AF00BFBD46FD
:1017700080BC7047FFF7F8FF0B480C490C4A002368
:1017800002E0D458C4500433C4188C42F9D3094A37
:10179000094C002301E013600432A242FBD302F0A3
:1017A00019F9FFF761FC704700000020DC01002000
:1017B000BC6B0008DC01002098020020FEE700005E
:1017C00080B500AF084B1B68074A43F01003136055
:1017D000032000F09FFD0F2000F008F8FFF71AFE2D
:1017E0000023184680BD00BF0020024080B582B0B3
:1017F00000AF7860124B1A68124B1B7819464FF4F1
:101800007A73B3FBF1F3B2FBF3F3184600F0B7FDC4
:101810000346002B01D001230EE07B680F2B0AD872
:10182000002279684FF0FF3000F07FFD064A7B68A8
:101830001360002300E0012318460837BD4680BD31
:1018400000000020080000200400002080B400AF49
:10185000054B1B781A46054B1B681344034A13605B
:1018600000BFBD4680BC70470800002084020020F5
:1018700080B400AF024B1B681846BD4680BC704761
:101880008402002080B584B000AF7860FFF7F0FFDD
:10189000B8607B68FB60FB68B3F1FF3F05D00A4B83
:1018A0001B781A46FB681344FB6000BFFFF7E0FF9C
:1018B0000246BB68D31AFA689A42F7D800BF00BF45
:1018C0001037BD4680BD00BF0800002080B586B03F
:1018D00000AF78600023FB7500233B610023BB60F1
:1018E0000023FB607B68002B01D10123BEE07B68F5
:1018F0009B68002B7B689B6A002B09D17B680022C8
:10190000DA627B68002283F824207868FFF7B4FD50
:10191000786800F0F1FB0346FB757B689B6A03F077
:101920001003002B40F09980FB7D002B40F0958048
:101930007B689B6A23F4885323F0020343F002027E
:101940007B689A627B685A687B68DB691A437B68AC
:101950001B7B5B001343BA681343BB607B689B68C7
:10196000B3F5807F03D07B689B68012B02D14FF4D5
:10197000807300E000233A6913433B617B681B7D61
:10198000012B19D17B681B7B002B09D17B689B69DC
:10199000013B5A033B69134343F400633B610BE093
:1019A0007B689B6A43F020027B689A627B68DB6AF3
:1019B00043F001027B68DA627B681B685B6823F492
:1019C00069417B681B683A690A435A607B681B68F7
:1019D0009A68284B13407A681268B9680B43936081
:1019E0007B689B68B3F5807F03D07B689B68012B85
:1019F00004D17B681B69013B1B05FB607B681B688E
:101A0000DB6A23F470017B681B68FA680A43DA62B8
:101A10007B681B689A68184B1340BA689A420BD1CE
:101A20007B680022DA627B689B6A23F0030343F041
:101A300001027B689A6218E07B689B6A23F01203BC
:101A400043F010027B689A627B68DB6A43F0010214
:101A50007B68DA620123FB7507E07B689B6A43F0D1
:101A600010027B689A620123FB75FB7D18461837CC
:101A7000BD4680BDFDF7E1FFFE0E1FFF80B584B0BF
:101A800000AF78600023FB737B6893F82430012B50
:101A900001D1022398E07B68012283F82420786832
:101AA00000F0D0FA0346FB73FB7B002B40F08780ED
:101AB0007B689B6A23F4407323F0010343F4807234
:101AC0007B689A627B681B68414A934205D1414B0F
:101AD0005B6803F47023002B15D17B689B6A23F4A9
:101AE00080127B689A627B681B685B6803F4806382
:101AF000002B26D07B689B6A23F4405343F480522A
:101B00007B689A621DE07B689B6A43F480127B6865
:101B10009A627B681B682F4A934204D07B681B68DB
:101B20002B4A93420DD12B4B5B6803F48063002B4F
:101B300007D07B689B6A23F4405343F480527B6850
:101B40009A627B689B6A03F48053002B06D07B6803
:101B5000DB6A23F006027B68DA6202E07B6800221F
:101B6000DA627B68002283F824207B681B686FF0B0
:101B700002021A607B681B689B6803F46023B3F55C
:101B8000602F13D17B681B68114A934205D1114B1A
:101B90005B6803F47023002B08D17B681B689A688C
:101BA0007B681B6842F4A0029A600CE07B681B68AB
:101BB0009A687B681B6842F480129A6003E07B6835
:101BC000002283F82420FB7B18461037BD4680BDD9
:101BD000002801400024014080B584B000AF786047
:101BE0000023FB737B6893F82430012B01D102237F
:101BF0001AE07B68012283F82420786800F07CFAE0
:101C00000346FB73FB7B002B09D17B689B6A23F4A3
:101C1000885323F0010343F001027B689A627B68DA
:101C2000002283F82420FB7B18461037BD4680BD78
:101C300090B587B000AF7860396000237B610023E6
:101C4000FB6000233B61FFF713FE78617B681B6834
:101C50009B6803F48073002B0BD07B689B6A43F076
:101C600020027B689A627B68002283F8242001238B
:101C7000D3E07B681B685B6803F48073002B31D171
:101C80007B681B68DB6A03F47003002B2AD121E018
:101C90003B68B3F1FF3F1DD03B68002B07D0FFF737
:101CA000E7FD02467B69D31A3A689A4212D27B68F2
:101CB0001B681B6803F00203002B0BD17B689B6A37
:101CC00043F004027B689A627B68002283F8242038
:101CD0000323A2E07B681B681B6803F00203002B50
:101CE000D6D070E04F4B1C68022001F0D3F90346B8
:101CF000B4FBF3F27B681B6819694B4B0B40002B5C
:101D000018D17B681B68D968484B0B40002B11D158
:101D10007B681B681969464B0B40002B08D17B6818
:101D20001B68D968434B0B40002B01D1142320E0E2
:101D300029231EE07B681B6819693D4B0B40002B73
:101D400006D17B681B68D9683A4B0B40002B0DD03D
:101D50007B681B681969384B0B40002B08D17B68E6
:101D60001B68D968344B0B40002B01D1542300E091
:101D7000FC2302FB03F33B6121E03B68B3F1FF3F2F
:101D80001AD03B68002B07D0FFF772FD02467B6933
:101D9000D31A3A689A420FD2FB683A699A420BD931
:101DA0007B689B6A43F004027B689A627B6800222E
:101DB00083F82420032330E0FB680133FB60FB68D9
:101DC0003A699A42D9D87B681B686FF012021A6090
:101DD0007B689B6A43F400727B689A627B681B682D
:101DE0009B6803F46023B3F5602F15D17B681B7BE0
:101DF000002B11D17B689B6A23F480727B689A6206
:101E00007B689B6A03F48053002B05D17B689B6A37
:101E100043F001027B689A62002318461C37BD46D6
:101E200090BD00BF00000020244992242449920064
:101E300092244912922449004992240080B483B02C
:101E400000AF78607B681B68DB6C18460C37BD46BA
:101E500080BC704780B485B000AF786039600023E3
:101E6000FB730023BB607B6893F82430012B01D106
:101E70000223DCE07B68012283F824203B685B6856
:101E8000062B1CD87B681B68596B3B685A68134645
:101E90009B001344053B1F2202FA03F3DB43194066
:101EA0003B6818683B685A6813469B001344053B1F
:101EB00000FA03F27B681B680A435A633CE03B6804
:101EC0005B680C2B1CD87B681B68196B3B685A68D5
:101ED00013469B001344233B1F2202FA03F3DB4308
:101EE00019403B6818683B685A6813469B001344C6
:101EF000233B00FA03F27B681B680A431A631BE06A
:101F00007B681B68D96A3B685A6813469B00134478
:101F1000413B1F2202FA03F3DB4319403B68186878
:101F20003B685A6813469B001344413B00FA03F296
:101F30007B681B680A43DA623B681B68092B1CD963
:101F40007B681B68D9683B681A6813465B001344BA
:101F50001E3B072202FA03F3DB4319403B689868F3
:101F60003B681A6813465B0013441E3B00FA03F2F9
:101F70007B681B680A43DA6019E07B681B68196993
:101F80003B681A6813465B001344072202FA03F306
:101F9000DB4319403B6898683B681A6813465B004E
:101FA000134400FA03F27B681B680A431A613B681A
:101FB0001B68102B03D03B681B68112B32D17B6848
:101FC0001B681D4A934225D17B681B689B6803F4FC
:101FD0000003002B26D17B681B689A687B681B680E
:101FE00042F400029A603B681B68102B1AD1134B15
:101FF0001B68134AA2FB03239A0C13469B0013444D
:102000005B00BB6002E0BB68013BBB60BB68002BB0
:10201000F9D107E07B689B6A43F020027B689A62F3
:102020000123FB737B68002283F82420FB7B184686
:102030001437BD4680BC70470024014000000020DA
:1020400083DE1B4380B584B000AF78600023FB6063
:102050000023BB607B681B689B6803F00103012BB6
:1020600040D07B681B689A687B681B6842F001025D
:102070009A601F4B1B681F4AA2FB03239B0CBB608B
:1020800002E0BB68013BBB60BB68002BF9D1FFF7E6
:10209000EFFBF8601FE0FFF7EBFB0246FB68D31A8B
:1020A000022B18D97B681B689B6803F00103012B86
:1020B00011D07B689B6A43F010027B689A627B6850
:1020C000DB6A43F001027B68DA627B68002283F8F6
:1020D0002420012307E07B681B689B6803F0010351
:1020E000012BD8D1002318461037BD4680BD00BF54
:1020F0000000002083DE1B4380B584B000AF786011
:102100000023FB607B681B689B6803F00103012BC5
:102110002ED17B681B689A687B681B6822F00102DD
:102120009A60FFF7A5FBF8601BE0FFF7A1FB0246F2
:10213000FB68D31A022B14D97B681B689B6803F0D9
:102140000103012B0DD17B689B6A43F010027B6871
:102150009A627B68DB6A43F001027B68DA620123E2
:1021600007E07B681B689B6803F00103012BDCD050
:10217000002318461037BD4680BD000080B485B0EE
:1021800000AF78607B6803F00703FB600C4BDB68F3
:10219000BB60BA684FF6FF031340BB60FB681A02CE
:1021A000BB68134343F0BF6343F40033BB60044A8E
:1021B000BB68D36000BF1437BD4680BC704700BF0A
:1021C00000ED00E080B400AF044BDB681B0A03F0B5
:1021D00007031846BD4680BC704700BF00ED00E015
:1021E00080B483B000AF0346FB7197F90730002B32
:1021F0000BDBFB7903F01F02064997F907305B09F7
:10220000012000FA02F241F8232000BF0C37BD463E
:1022100080BC704700E100E080B483B000AF0346AB
:102220003960FB7197F90730002B0ADB3B68DAB2A3
:102230000C4997F907301201D2B20B4483F80023FE
:102240000AE03B68DAB20849FB7903F00F03043B6C
:102250001201D2B20B441A7600BF0C37BD4680BCC7
:10226000704700BF00E100E000ED00E080B489B0FD
:1022700000AFF860B9607A60FB6803F00703FB61A8
:10228000FB69C3F10703042B28BF0423BB61FB696F
:102290000433062B02D9FB69033B00E000237B617A
:1022A0004FF0FF32BB6902FA03F3DA43BB681A400E
:1022B0007B699A404FF0FF317B6901FA03F3D94300
:1022C0007B680B40134318462437BD4680BC7047DB
:1022D00080B582B000AF78607B68013BB3F1807F4E
:1022E00001D301230FE00A4A7B68013B53600F21B1
:1022F0004FF0FF30FFF790FF054B00229A60044B30
:1023000007221A60002318460837BD4680BD00BF6B
:1023100010E000E080B582B000AF78607868FFF729
:102320002DFF00BF0837BD4680BD80B586B000AF29
:102330000346B9607A60FB7300237B61FFF742FFBD
:1023400078617A68B9687869FFF790FF024697F973
:102350000F3011461846FFF75FFF00BF1837BD4624
:1023600080BD80B582B000AF0346FB7197F907309E
:102370001846FFF735FF00BF0837BD4680BD80B562
:1023800082B000AF78607868FFF7A2FF0346184676
:102390000837BD4680BD000080B48BB000AF7860C8
:1023A000396000237B6200233B6248E101227B6AA3
:1023B00002FA03F3FB613B681B68FA691340BB61D7
:1023C000BA69FB699A4240F037813B685B68A34A6F
:1023D00093425ED0A14A934275D8A14A934258D005
:1023E0009F4A93426FD89F4A934252D09D4A93424C
:1023F00069D89D4A93424CD09B4A934263D89B4AEA
:10240000934246D0994A93425DD8122B2AD8122B78
:1024100059D801A252F823F0932400086D24000833
:102420007F240008C1240008C7240008C72400082E
:10243000C7240008C7240008C7240008C7240008D0
:10244000C7240008C7240008C7240008C7240008C0
:10245000C7240008C7240008C72400087524000802
:1024600089240008824A934213D02CE03B68DB6841
:102470003B6229E03B68DB6804333B6224E03B6855
:10248000DB6808333B621FE03B68DB680C333B6270
:102490001AE03B689B68002B02D104233B6213E0E7
:1024A0003B689B68012B05D108233B627B68FA6976
:1024B0001A6109E008233B627B68FA695A6103E00C
:1024C00000233B6200E000BFBB69FF2B01D87B68A3
:1024D00001E07B6804337B61BB69FF2B02D87B6A18
:1024E0009B0002E07B6A083B9B003B617B691A68AA
:1024F0000F213B6901FA03F3DB431A40396A3B6958
:1025000001FA03F31A437B691A603B685B6803F0C6
:102510008053002B00F09080564B9B69554A43F046
:1025200001039361534B9B6903F00103BB60BB68DC
:10253000514A7B6A9B08023352F82330FB607B6A66
:1025400003F003039B000F2202FA03F3DB43FA6854
:102550001340FB607B68494A93420DD07B68484A30
:10256000934207D07B68474A934201D1022304E09B
:10257000032302E0012300E000237A6A02F0030251
:1025800092009340FA681343FB603B497B6A9B08C7
:102590000233FA6841F823203B685B6803F4801338
:1025A000002B06D0384B9A683749BB6913438B60C0
:1025B00006E0354B9A68BB69DB43334913408B60B7
:1025C0003B685B6803F40013002B06D02E4BDA68DF
:1025D0002D49BB691343CB6006E02B4BDA68BB691E
:1025E000DB4329491340CB603B685B6803F400334D
:1025F000002B06D0244B5A682349BB6913434B6018
:1026000006E0214B5A68BB69DB431F4913404B600E
:102610003B685B6803F48033002B06D01A4B1A68C2
:102620001949BB6913430B6006E0174B1A68BB6975
:10263000DB43154913400B607B6A01337B623B68C7
:102640001A687B6A22FA03F3002B7FF4AFAE00BF57
:1026500000BF2C37BD4680BC704700BF0000321061
:1026600000003110000022100000211000001210A4
:10267000000011100010024000000140000801405D
:10268000000C0140001001400004014080B483B000
:1026900000AF78600B467B8013467B707B78002B05
:1026A00003D07A887B681A6103E07B881A047B6810
:1026B0001A6100BF0C37BD4680BC704780B485B03E
:1026C00000AF78600B467B807B68DB68FB607A88B4
:1026D000FB6813401A04FB68D9437B880B401A43FC
:1026E0007B681A6100BF1437BD4680BC704700008C
:1026F00080B582B000AF0346FB80084B5A69FB8867
:102700001340002B06D0054AFB885361FB8818460E
:1027100000F006F800BF0837BD4680BD0004014048
:1027200080B483B000AF0346FB8000BF0C37BD46CA
:1027300080BC704780B586B000AF78607B68002BA6
:1027400001D101236CE27B681B6803F00103002BBD
:1027500000F08780924B5B6803F00C03042B0CD0D5
:102760008F4B5B6803F00C03082B12D18C4B5B681A
:1027700003F48033B3F5803F0BD1894B1B6803F41E
:102780000033002B6CD07B685B68002B68D1012381
:1027900046E27B685B68B3F5803F06D1804B1B68DF
:1027A0007F4A43F4803313602EE07B685B68002B24
:1027B0000CD17B4B1B687A4A23F480331360784B2F
:1027C0001B68774A23F4802313601DE07B685B68F5
:1027D000B3F5A02F0CD1724B1B68714A43F48023D0
:1027E00013606F4B1B686E4A43F4803313600BE039
:1027F0006B4B1B686A4A23F480331360684B1B6879
:10280000674A23F4802313607B685B68002B13D036
:10281000FFF72EF8386108E0FFF72AF802463B6917
:10282000D31A642B01D90323FAE15D4B1B6803F42F
:102830000033002BF0D014E0FFF71AF8386108E0FD
:10284000FFF716F802463B69D31A642B01D903231C
:10285000E6E1534B1B6803F40033002BF0D100E09A
:1028600000BF7B681B6803F00203002B63D04C4B56
:102870005B6803F00C03002B0BD0494B5B6803F043
:102880000C03082B1CD1464B5B6803F48033002BF0
:1028900016D1434B1B6803F00203002B05D07B6865
:1028A0001B69012B01D00123BAE13D4B1B6823F0CA
:1028B000F8027B685B69DB00394913430B603AE03F
:1028C0007B681B69002B20D0364B01221A60FEF773
:1028D000CFFF386108E0FEF7CBFF02463B69D31A11
:1028E000022B01D903239BE12D4B1B6803F002034C
:1028F000002BF0D02A4B1B6823F0F8027B685B6941
:10290000DB00274913430B6015E0264B00221A60B9
:10291000FEF7AEFF386108E0FEF7AAFF02463B690A
:10292000D31A022B01D903237AE11D4B1B6803F054
:102930000203002BF0D17B681B6803F00803002B17
:102940003AD07B689B69002B19D0174B01221A6083
:10295000FEF78EFF386108E0FEF78AFF02463B690A
:10296000D31A022B01D903235AE10D4B5B6A03F002
:102970000203002BF0D0012000F0B8FA1CE00A4B53
:1029800000221A60FEF774FF38610FE0FEF770FF57
:1029900002463B69D31A022B08D9032340E100BF4A
:1029A0000010024000004242800442429E4B5B6A9B
:1029B00003F00203002BE9D17B681B6803F00403DA
:1029C000002B00F0A6800023FB75974BDB6903F01A
:1029D0008053002B0DD1944BDB69934A43F0805315
:1029E000D361914BDB6903F08053BB60BB6801236B
:1029F000FB758E4B1B6803F48073002B18D18B4B37
:102A00001B688A4A43F480731360FEF731FF386114
:102A100008E0FEF72DFF02463B69D31A642B01D96B
:102A20000323FDE0814B1B6803F48073002BF0D07F
:102A30007B68DB68012B06D17B4B1B6A7A4A43F02B
:102A4000010313622DE07B68DB68002B0CD1764B11
:102A50001B6A754A23F001031362734B1B6A724AA7
:102A600023F0040313621CE07B68DB68052B0CD1A8
:102A70006D4B1B6A6C4A43F0040313626A4B1B6A7A
:102A8000694A43F0010313620BE0674B1B6A664A15
:102A900023F001031362644B1B6A634A23F00403AF
:102AA00013627B68DB68002B15D0FEF7E1FE38610E
:102AB0000AE0FEF7DDFE02463B69D31A41F2883296
:102AC000934201D90323ABE0574B1B6A03F0020387
:102AD000002BEED014E0FEF7CBFE38610AE0FEF7E3
:102AE000C7FE02463B69D31A41F28832934201D9AC
:102AF000032395E04C4B1B6A03F00203002BEED13D
:102B0000FB7D012B05D1484BDB69474A23F08053FD
:102B1000D3617B68DB69002B00F08180424B5B68EE
:102B200003F00C03082B61D07B68DB69022B46D1D4
:102B30003F4B00221A60FEF79BFE386108E0FEF76B
:102B400097FE02463B69D31A022B01D9032367E0A3
:102B5000354B1B6803F00073002BF0D17B681B6AB8
:102B6000B3F5803F08D1304B5B6823F400327B68BB
:102B70009B682D4913434B602B4B5B6823F4741205
:102B80007B68196A7B685B6A0B43274913434B6078
:102B9000274B01221A60FEF76BFE386108E0FEF752
:102BA00067FE02463B69D31A022B01D9032337E0A3
:102BB0001D4B1B6803F00073002BF0D02FE01C4B63
:102BC00000221A60FEF754FE386108E0FEF750FE5E
:102BD00002463B69D31A022B01D9032320E0124B92
:102BE0001B6803F00073002BF0D118E07B68DB69F1
:102BF000012B01D1012313E00B4B5B68FB60FB68E9
:102C000003F480327B681B6A9A4206D1FB6803F4A6
:102C100070127B685B6A9A4201D0012300E00023B6
:102C200018461837BD4680BD0010024000700040B5
:102C30006000424280B584B000AF786039607B6844
:102C4000002B01D10123D0E06A4B1B6803F007037E
:102C50003A689A4210D9674B1B6823F0070265490E
:102C60003B6813430B60634B1B6803F007033A6830
:102C70009A4201D00123B8E07B681B6803F002038D
:102C8000002B20D07B681B6803F00403002B05D0C9
:102C9000594B5B68584A43F4E06353607B681B6898
:102CA00003F00803002B05D0534B5B68524A43F4F2
:102CB00060535360504B5B6823F0F0027B689B6865
:102CC0004D4913434B607B681B6803F00103002BE5
:102CD00040D07B685B68012B07D1474B1B6803F42E
:102CE0000033002B15D101237FE07B685B68022B4A
:102CF00007D1414B1B6803F00073002B09D101235E
:102D000073E03D4B1B6803F00203002B01D101234C
:102D10006BE0394B5B6823F003027B685B683649E4
:102D200013434B60FEF7A4FDF8600AE0FEF7A0FD38
:102D30000246FB68D31A41F28832934201D9032339
:102D400053E02D4B5B6803F00C027B685B689B00D3
:102D50009A42EBD1274B1B6803F007033A689A426B
:102D600010D2244B1B6823F0070222493B6813430F
:102D70000B60204B1B6803F007033A689A4201D0AE
:102D8000012332E07B681B6803F00403002B08D0AA
:102D9000194B5B6823F4E0627B68DB6816491343D8
:102DA0004B607B681B6803F00803002B09D0124BB3
:102DB0005B6823F460527B681B69DB000E49134398
:102DC0004B6000F021F802460B4B5B681B0903F0D7
:102DD0000F030A49CB5C22FA03F3094A1360094B3B
:102DE0001B681846FEF702FD002318461037BD4643
:102DF00080BD00BF00200240001002409467000820
:102E0000000000200400002080B487B000AF002341
:102E1000FB600023BB6000237B6100237B600023F9
:102E20003B611E4B5B68FB60FB6803F00C03042BEB
:102E300002D0082B03D027E0194B3B6127E0FB6849
:102E40009B0C03F00F03174AD35C7B60FB6803F411
:102E50008033002B10D0114B5B685B0C03F0010337
:102E6000114AD35CBB607B680D4A02FB03F2BB686E
:102E7000B2FBF3F37B6104E07B680C4A02FB03F3D3
:102E80007B617B693B6102E0054B3B6100BF3B69B5
:102E900018461C37BD4680BC704700BF001002407A
:102EA00000127A00AC670008BC67000800093D000A
:102EB00080B400AF024B1B681846BD4680BC70470B
:102EC0000000002080B500AFFFF7F2FF0246054B7F
:102ED0005B68DB0A03F007030349CB5C22FA03F3C8
:102EE000184680BD00100240A467000880B485B079
:102EF00000AF78600A4B1B680A4AA2FB03235B0AF7
:102F00007A6802FB03F3FB6000BFFB685A1EFA609D
:102F1000002BF9D100BF00BF1437BD4680BC7047FD
:102F200000000020D34D621080B586B000AF7860FD
:102F300000233B610023FB607B681B6803F00103F7
:102F4000002B7DD00023FB754F4BDB6903F08053D2
:102F5000002B0DD14C4BDB694B4A43F08053D361BE
:102F6000494BDB6903F08053BB60BB680123FB75F1
:102F7000464B1B6803F48073002B18D1434B1B682E
:102F8000424A43F480731360FEF772FC386108E034
:102F9000FEF76EFC02463B69D31A642B01D903236A
:102FA0006DE03A4B1B6803F48073002BF0D0364B76
:102FB0001B6A03F44073FB60FB68002B2ED07B6818
:102FC0005B6803F44073FA689A4227D02E4B1B6A61
:102FD00023F44073FB602E4B01221A602C4B00221D
:102FE0001A60294AFB681362FB6803F00103002B97
:102FF00014D0FEF73DFC38610AE0FEF739FC0246CA
:103000003B69D31A41F28832934201D9032336E057
:103010001D4B1B6A03F00203002BEED01A4B1B6AF8
:1030200023F440727B685B68174913430B62FB7D96
:10303000012B05D1144BDB69134A23F08053D36174
:103040007B681B6803F00203002B08D00E4B5B6803
:1030500023F440427B689B680B4913434B607B68B9
:103060001B6803F01003002B08D0074B5B6823F4A8
:1030700080027B68DB68044913434B6000231846D9
:103080001837BD4680BD00BF0010024000700040F0
:103090004004424280B588B000AF786000237B6175
:1030A0000023FB6100233B610023FB600023BB6125
:1030B0007B68102B0AD07B68102B00F28A807B681B
:1030C000012B45D07B68022B75D082E0464B5B68B4
:1030D000FB60454B1B6803F08073002B7BD0FB68C3
:1030E0009B0C03F00F03414AD35C3B61FB6803F484
:1030F0008033002B15D03C4B5B685B0C03F0010365
:103100003B4AD35C7B61FB6803F48033002B0DD01A
:10311000384A7B69B2FBF3F23B6902FB03F3FB61C4
:1031200004E03B69344A02FB03F3FB612E4B5B680E
:1031300003F48003B3F5800F02D1FB69BB614AE061
:10314000FB695B002D4AA2FB03235B08BB6142E0E5
:10315000254B1B6AFB60FB6803F44073B3F5807F6B
:1031600008D1FB6803F00203002B03D04FF40043A7
:10317000BB611FE0FB6803F44073B3F5007F09D126
:10318000194B5B6A03F00203002B03D049F640435E
:10319000BB610FE0FB6803F44073B3F5407F1CD1C3
:1031A000114B1B6803F40033002B16D04FF224435D
:1031B000BB6112E011E0FFF785FE02460A4B5B6837
:1031C0009B0B03F0030301335B00B2FBF3F3BB6122
:1031D00004E000BF02E000BF00E000BFBB6918468A
:1031E0002037BD4680BD00BF00100240C067000808
:1031F000D067000800127A0000093D00ABAAAAAA15
:1032000080B582B000AF78607B68002B01D10123CC
:1032100041E07B6893F83D30DBB2002B06D17B6840
:10322000002283F83C207868FEF762F97B6802226E
:1032300083F83D207B681A687B6804331946104682
:1032400000F05EFA7B68012283F846207B68012249
:1032500083F83E207B68012283F83F207B680122AF
:1032600083F840207B68012283F841207B6801229B
:1032700083F842207B68012283F843207B68012287
:1032800083F844207B68012283F845207B68012273
:1032900083F83D20002318460837BD4680BD000056
:1032A00080B485B000AF78607B6893F83D30DBB2C6
:1032B000012B01D0012335E07B68022283F83D20F9
:1032C0007B681B68DA687B681B6842F00102DA6081
:1032D0007B681B68164A934209D07B681B68B3F170
:1032E000804F04D07B681B68124A934211D17B68DF
:1032F0001B689B6803F00703FB60FB68062B10D07C
:103300007B681B681A687B681B6842F001021A60C0
:1033100007E07B681B681A687B681B6842F0010243
:103320001A60002318461437BD4680BC704700BFA2
:10333000002C01400004004080B584B000AF7860EC
:103340007B681B68DB68FB607B681B681B69BB6074
:10335000BB6803F00203002B20D0FB6803F00203DC
:10336000002B1BD07B681B686FF002021A617B6820
:1033700001221A777B681B689B6903F00303002B0B
:1033800003D0786800F0A1F905E0786800F094F9BE
:10339000786800F0A3F97B6800221A77BB6803F015
:1033A0000403002B20D0FB6803F00403002B1BD088
:1033B0007B681B686FF004021A617B6802221A772F
:1033C0007B681B689B6903F44073002B03D078680B
:1033D00000F07BF905E0786800F06EF9786800F09D
:1033E0007DF97B6800221A77BB6803F00803002B85
:1033F00020D0FB6803F00803002B1BD07B681B6800
:103400006FF008021A617B6804221A777B681B68D8
:10341000DB6903F00303002B03D0786800F055F953
:1034200005E0786800F048F9786800F057F97B68A3
:1034300000221A77BB6803F01003002B20D0FB6832
:1034400003F01003002B1BD07B681B686FF0100289
:103450001A617B6808221A777B681B68DB6903F4B2
:103460004073002B03D0786800F02FF905E07868EE
:1034700000F022F9786800F031F97B6800221A77B1
:10348000BB6803F00103002B0CD0FB6803F00103C1
:10349000002B07D07B681B686FF001021A61786807
:1034A00000F001F9BB6803F08003002B0CD0FB682F
:1034B00003F08003002B07D07B681B686FF080024D
:1034C0001A61786800F077FABB6803F04003002BBC
:1034D0000CD0FB6803F04003002B07D07B681B680F
:1034E0006FF040021A61786800F001F9BB6803F0E0
:1034F0002003002B0CD0FB6803F02003002B07D027
:103500007B681B686FF020021A61786800F04AFA45
:1035100000BF1037BD4680BD80B584B000AF786075
:1035200039600023FB737B6893F83C30012B01D199
:103530000223B4E07B68012283F83C207B680222EE
:1035400083F83D207B681B689B68BB60BB6823F0E9
:103550007703BB60BB6823F47F43BB607B681B6859
:10356000BA689A603B681B68B3F5005F3ED0B3F55C
:10357000005F00F28780B3F5805F00F08680B3F5CE
:10358000805F7FD8702B1AD0702B7BD8602B50D0E7
:10359000602B77D8502B3CD0502B73D8402B58D071
:1035A000402B6FD8302B64D0302B6BD8202B60D0C1
:1035B000202B67D8002B5CD0102B5AD062E07B68A0
:1035C00018683B6899683B685A683B68DB6800F09C
:1035D00072F97B681B689B68BB60BB6843F077032C
:1035E000BB607B681B68BA689A604FE07B681868AC
:1035F0003B6899683B685A683B68DB6800F05BF998
:103600007B681B689A687B681B6842F480429A60FA
:103610003CE07B6818683B6859683B68DB681A4681
:1036200000F0D2F87B681B685021184600F029F999
:103630002CE07B6818683B6859683B68DB681A4671
:1036400000F0F0F87B681B686021184600F019F95B
:103650001CE07B6818683B6859683B68DB681A4661
:1036600000F0B2F87B681B684021184600F009F9A9
:103670000CE07B681A683B681B681946104600F02E
:1036800000F903E00123FB7300E000BF7B68012227
:1036900083F83D207B68002283F83C20FB7B1846A2
:1036A0001037BD4680BD80B483B000AF786000BFE6
:1036B0000C37BD4680BC704780B483B000AF7860E3
:1036C00000BF0C37BD4680BC704780B483B000AFEC
:1036D000786000BF0C37BD4680BC704780B483B0B3
:1036E00000AF786000BF0C37BD4680BC704780B427
:1036F00083B000AF786000BF0C37BD4680BC704718
:1037000080B485B000AF786039607B681B68FB606F
:103710007B682B4A934207D07B68B3F1804F03D07C
:103720007B68284A934208D1FB6823F07003FB6052
:103730003B685B68FA681343FB607B68204A9342EE
:1037400007D07B68B3F1804F03D07B681D4A93425A
:1037500008D1FB6823F44073FB603B68DB68FA68C0
:103760001343FB60FB6823F080023B685B691343F3
:10377000FB607B68FA681A603B689A687B68DA626B
:103780003B681A687B689A627B680D4A934203D152
:103790003B681A697B681A637B6801225A617B68FF
:1037A0001B6903F00103002B05D07B681B6923F024
:1037B00001027B681A6100BF1437BD4680BC7047A8
:1037C000002C01400004004080B487B000AFF860D6
:1037D000B9607A60FB681B6A7B61FB681B6A23F037
:1037E0000102FB681A62FB689B693B613B6923F03D
:1037F000F0033B617B681B013A6913433B617B69C2
:1038000023F00A037B617A69BB6813437B61FB6821
:103810003A699A61FB687A691A6200BF1C37BD4633
:1038200080BC704780B487B000AFF860B9607A6040
:10383000FB681B6A7B61FB681B6A23F01002FB6854
:103840001A62FB689B693B613B6923F470433B61EF
:103850007B681B033A6913433B617B6923F0A00338
:103860007B61BB681B017A6913437B61FB683A6922
:103870009A61FB687A691A6200BF1C37BD4680BC3A
:10388000704780B485B000AF786039607B689B6812
:10389000FB60FB6823F07003FB603A68FB6813432E
:1038A00043F00703FB607B68FA689A6000BF143737
:1038B000BD4680BC704780B487B000AFF860B96087
:1038C0007A603B60FB689B687B617B6923F47F4384
:1038D0007B613B681A027B681A43BB6813437A69B1
:1038E00013437B61FB687A699A6000BF1C37BD4651
:1038F00080BC704780B485B000AF786039607B6869
:1039000093F83C30012B01D1022341E07B68012276
:1039100083F83C207B68022283F83D207B681B688B
:103920005B68FB607B681B689B68BB60FB6823F07F
:103930007003FB603B681B68FA681343FB607B689D
:103940001B68FA685A607B681B68144A934209D066
:103950007B681B68B3F1804F04D07B681B68104AFA
:1039600093420CD1BB6823F08003BB603B685B686B
:10397000BA681343BB607B681B68BA689A607B684F
:10398000012283F83D207B68002283F83C2000233D
:1039900018461437BD4680BC704700BF002C01405C
:1039A0000004004080B483B000AF786000BF0C37E3
:1039B000BD4680BC704780B483B000AF786000BF64
:1039C0000C37BD4680BC7047014B1868704700BF7C
:1039D0000C00002070B500260C4D0D4C641BA4108B
:1039E000A64209D102F0BAFE00260A4D0A4C641B19
:1039F000A410A64205D170BD55F8043B9847013686
:103A0000EEE755F8043B98470136F2E7B46B00083F
:103A1000B46B0008B46B0008B86B0008034602449E
:103A2000934200D1704703F8011BF9E7002B2DE901
:103A3000F0471F46BBBF03F100431F4600232D2361
:103A400088B01446129A109D1370149BDDF84CA098
:103A500023F02008B8F1460F05D0B8F1450F00D18A
:103A60000135022300E0032307AA049206AACDE948
:103A700002A2CDE9003522463B4600F0E5FCB8F154
:103A8000470F064602D1119BDB0722D5B8F1460F3E
:103A900006EB050910D13378302B0AD10022002320
:103AA00020463946FCF780FF18B9C5F10105CAF870
:103AB0000050DAF8003099440022002320463946AD
:103AC000FCF772FF08B1CDF81C903022079B4B45E4
:103AD00007D33046079B159A9B1B136008B0BDE8BF
:103AE000F087591C07911A70F0E70346F7B50029D3
:103AF00003F8022BB6BF2D222B224942092942701E
:103B00002BDD0DF10704A4460A2791FBF7F60A46C0
:103B1000A64607FB1615632A05F13005314604F168
:103B2000FF340EF8015CF0DC3031AEF1020504F830
:103B3000011C2946441C61450AD30DF10902A2EB80
:103B40000E02654588BF00221344181A03B0F0BD69
:103B500011F8012B04F8012FEDE730233031837089
:103B6000C170031DF1E700002DE9F04F91B00C4644
:103B7000DDF8688016461F46054601F053FA0368D3
:103B800018460993FCF7E4FA00230E93D8F80030A6
:103B90000A90073323F0070303F1080294F8189002
:103BA000D4F800B0C8F80020D3E90023C4E91223F8
:103BB000D4E9128A2AF000430B934FF0FF324046BB
:103BC0009C4B0B99FCF722FF70BB4FF0FF32404635
:103BD000984B0B99FCF7FCFE30BB002200234046BB
:103BE0005146FCF7EBFE10B12D2384F84330924B85
:103BF0009248B9F1470F94BF9846804603234FF08F
:103C0000000A23612BF00403236033462146284633
:103C100000970FAA00F0D4F9013040F090804FF0E7
:103C2000FF3011B0BDE8F08F424653464046514642
:103C3000FCF7ECFE48B1BAF1000FB8BF2D23804865
:103C4000B8BF84F843307F4BD3E7636809F0DF01E6
:103C50005A1C42D106236360002206920EAACDE9C7
:103C600004920DAA4BF4806303920DF13302CDE967
:103C700001322360636842460093284653460B9105
:103C8000FFF7D4FE0B99804647290D9908D1C81C2F
:103C900002DB6368994240DDA9F102095FFA89F904
:103CA000B9F1650F1FD84A46013904F150000D9152
:103CB000FFF71BFF0E9A82461318012A236102DCCC
:103CC0002268D20701D5013323619DF83330002BE0
:103CD0009BD02D2384F8433097E74729BCD1002B94
:103CE000BAD10123B7E7B9F1660F18D1002963688B
:103CF0000BDD216113B92268D00702D501330B44D3
:103D000023614FF0000AA165DFE713B92268D207EB
:103D100001D50233F4E70123F2E74FF067090E9B68
:103D2000994205DB23682161D807EAD54B1CE7E7F8
:103D30000029CCBF0122C1F102021344E0E723684D
:103D40005A0507D42369424631462846B847013010
:103D50002BD164E7B9F1650F40F2DD80D4E912019F
:103D600000220023FCF720FE002833D00123314637
:103D70002846354AB84701303FF451AFDDE90D23FD
:103D80009A4202DB2368D8070FD5DDE909233146C3
:103D90002846B84701303FF442AF4FF0000804F125
:103DA0001A090E9B013B434509DC23689B0700F180
:103DB0000281E0680F9B9842B8BF184631E70123A3
:103DC0004A4631462846B84701303FF428AF08F14B
:103DD0000108E6E70D9B002B38DC0123314628461D
:103DE000194AB84701303FF41AAFDDE90D231343F8
:103DF00002D12368D907D8D5DDE909233146284601
:103E0000B84701303FF40BAF4FF0000904F11A0A34
:103E10000D9B5B424B4501DC0E9B94E70123524610
:103E200031462846B84701303FF4F9AE09F101099F
:103E3000EEE700BFFFFFEF7FD8670008DC670008F0
:103E4000E4670008E0670008E86700080E9AA36DC1
:103E50009A42A8BF1A46002A914637DC4FF0000B61
:103E600029EAE97904F11A02D4F858A0AAEB090367
:103E70005B4533DCDDE90D239A423BDB2368DA073F
:103E800038D40E9A0D99A2EB0A03A2EB01099945C9
:103E9000A8BF9946B9F1000F34DC4FF0000829EAB9
:103EA000E97904F11A0ADDE90D239B1AA3EB090352
:103EB00043457FF77AAF0123524631462846B8473B
:103EC00001303FF4ACAE08F10108ECE7134631468F
:103ED00042462846B8470130C0D1A0E6012331460A
:103EE00028460B92B84701303FF499AE0B9A0BF17C
:103EF000010BB9E73146DDE909232846B84701300F
:103F0000BFD18CE64B463146284608EB0A02B8473B
:103F10000130C2D183E60E9A012A01DCDB0737D5D6
:103F20000123424631462846B84701303FF477AE78
:103F3000DDE9092331462846B84701303FF46FAE2A
:103F4000D4E9120100220023FCF72EFDD8B90E9B04
:103F500008F10102013B31462846B84701300ED135
:103F60005DE601234A4631462846B84701303FF412
:103F700056AE08F101080E9B013B4345F1DC534668
:103F800004F15002E0E64FF0000804F11A09F2E7EC
:103F900001234246DFE701234A4631462846B84717
:103FA00001303FF43CAE08F10108E3680F995B1A59
:103FB0004345F0DCFDE64FF0000804F11909F4E791
:103FC0002DE9F047164699468A680B6907469342E1
:103FD000B8BF1346336091F843200C46DDF82080CB
:103FE0000AB1013333602368990642BF3368023354
:103FF0003360256815F0060506D104F1190AE36857
:1040000032689B1AAB4228DC94F84320131E2268C6
:1040100018BF012392062DD44946384604F14302C5
:10402000C047013020D02368E56803F00603042B65
:1040300018BF002532684FF00006A36808BFAD1A0C
:10404000226908BF25EAE5759342C4BF9B1AED18A3
:104050001A34B5421AD1002008E0012352464946DD
:104060003846C047013003D14FF0FF30BDE8F0873C
:104070000135C4E73020E11881F843005A1C94F858
:1040800045102244023382F84310C5E7012322463B
:1040900049463846C0470130E6D00136D9E700002E
:1040A0002DE9FF470C46277E9146782F80469A4699
:1040B0000C9904F1430207D8622F0AD8002F00F0B0
:1040C000D980582F00F0A48004F1420684F8427091
:1040D0003AE0A7F16303152BF6D801A050F823F0BE
:1040E000394100084D410008C9400008C940000896
:1040F000C9400008C94000084D410008C9400008F7
:10410000C9400008C9400008C94000085B420008D7
:104110007D4100083D420008C9400008C940000830
:104120007D420008C94000087D410008C9400008E0
:10413000C9400008454200080B6804F142061A1DF8
:104140001B680A6084F842300123A4E025680868EF
:104150002E0600F104030AD505680B60002D03DA72
:104160002D236D4284F843300A235E4819E015F090
:10417000400F05680B6018BF2DB2EFE70B6825688C
:10418000181D0860280601D51D6802E06906FBD5E8
:104190001D886F2F0CBF08230A235248002184F882
:1041A00043106668002EA8BF2168A660A4BF21F056
:1041B000040121600DB9002E4DD01646B5FBF3F178
:1041C00003FB1157C75D06F8017D2F46BB420D4624
:1041D000F4D9082B0BD12368DF0708D52369616860
:1041E0009942DEBF302306F8013C06F1FF36921BF0
:1041F00022614B4621464046CDF800A003AAFFF7B6
:10420000DFFE01304CD14FF0FF3004B0BDE8F08745
:10421000344884F845700E68236856F8045B1F061E
:104220000E6014D5D90744BF43F0200323601DB9A5
:10423000236823F0200323601023AFE7236843F0B3
:10424000200323607823284884F84530E3E75E069E
:1042500048BFADB2E6E71646BBE70B6826681D1DF2
:1042600060690D6035061B6801D5186002E07106B3
:10427000FBD51880002316462361BAE70B681A1D88
:104280000A601E6800213046626800F0D7FE08B15F
:10429000801B606063682361002384F84330A8E7D3
:1042A0003246494640462369D0470130ABD02368A7
:1042B0009B0713D4E068039B9842B8BF1846A4E755
:1042C0000123324649464046D04701309BD0013554
:1042D000E36803995B1AAB42F2DCEBE7002504F1DB
:1042E0001906F5E7EA670008FB6700080EB46FF0EF
:1042F000004100B59CB01DAB02900690079104915F
:104300000848094953F8042B0591006802A9019354
:1043100001F042FB0022029B1A701CB05DF804EB16
:1043200003B070470C0000200802FFFF2DE9F74F93
:1043300003690C690746A342C0F28380013C00F187
:10434000140501F1140805EB8403019358F8243097
:1043500055F8242001339A42B2FBF3F64FEA840B5E
:1043600008EB840932D34FF0000E4046AC46F246CB
:1043700050F8042B93B206FB03E3120C4FEA134EE2
:1043800006FB02E29BB2AAEB0303DCF800A04FEAB3
:10439000124E1FFA8AFA53441FFA82FADCF8002000
:1043A0008145CAEB124202EB23429BB243EA02432D
:1043B0004FEA224A4CF8043BDAD255F80B302BB9BD
:1043C000019B043B9D421A462FD33C61384601F0C5
:1043D000CBF8002825DB28464FF0000C013658F8B2
:1043E000041BD0F800E08BB2ACEB03031FFA8EF293
:1043F00013440A0CC2EB1E4202EB23429BB243EA77
:104400000243C1454FEA224C40F8043BE7D255F83D
:10441000242005EB840322B9043B9D421A460AD3AB
:104420003C61304603B0BDE8F08F1268043B002ABF
:10443000CBD1013CC6E71268043B002AF0D1013C15
:10444000EBE70020EEE700002DE9F04F16461F468F
:10445000446A99B00546CDE90467DDF8948074B9E3
:10446000102000F0E3FD0246686220B9EA21AE4B5D
:10447000AE4801F0A1FBC0E901440460C4606B6A6E
:10448000196851B15A68012393404A608B602846ED
:1044900000F030FE00226B6A1A603B1EAFBF0023A3
:1044A000012223F000430593A8BFC8F80030DDF8CF
:1044B00014909F4BB8BFC8F8002033EA090319D104
:1044C00042F20F73249A1360C9F31303334300F0CD
:1044D0008085269B53B9974B22E0974B089308336E
:1044E000269A1360089819B0BDE8F08F914B089395
:1044F0000333F5E7DDE90434CDE90C34DDE90C01E3
:1045000000220023FCF750FA804658B10123249A78
:104510001360269B002B00F0598588481860431EC5
:104520000893DFE716AB019317AB00932846DDE94C
:104530000C2301F0C5F8C9F30A548246002C7ED042
:10454000DDE90C010D9BA4F2FF34C3F3130343F028
:104550007F5141F44011CDF84C800022784BFBF79D
:1045600003FE6BA3D3E90023FBF7B6FF6AA3D3E9ED
:104570000023FBF7FBFD064620460F46FBF742FFF4
:1045800067A3D3E90023FBF7A7FF02460B4630469B
:104590003946FBF7EBFD06460F46FCF74DFA0022C5
:1045A0008146002330463946FCF708FA48B14846B0
:1045B000FBF728FF32463B46FCF7F6F908B909F14C
:1045C000FF39B9F1160F57D8DDE90C015D4B03EB4C
:1045D000C903D3E90023FCF7F1F900284ED00023EA
:1045E00009F1FF390F93169B1C1B631E099349BFEA
:1045F000C4F1010300230693002354BF06930993DB
:10460000B9F1000F3CDB099BCDF838904B4409937E
:1046100000230A93229B092B6CD8052BC4BF043BB3
:104620002293229BC8BF0024A3F10203D8BF012418
:10463000032B00F28B80DFE803F02D4F4D5BDDE9AB
:1046400016431C4404F23243202BC3BFC3F1400382
:1046500004F2124009FA03F3C3F12003C6BF26FA9D
:1046600000F0184306FA03F0FBF7BCFE0123A1F1AA
:10467000F871013C139370E70123B3E70F90B2E7A1
:10468000069BA3EB09030693C9F100030A930023D9
:104690000E93BFE700230B93239B002B59DC4FF0B5
:1046A000010B5B46CDF808B0CDF88CB00022686AEB
:1046B0004260042202F114069E4241684FD9284606
:1046C00000F0D8FC089000284DD102464FF4D57177
:1046D0001D4BCDE60123DEE700230B93239B09EB63
:1046E000030B0BF10103012B0293B8BF0123DDE79C
:1046F0000123F2E7012400230B9422934FF0FF3BA8
:1047000000221223CDF808B02392CFE7AFF3008048
:1047100061436F63A787D23FB3C8608B288AC63FC7
:10472000FB799F501344D33F196800083068000894
:104730000000F07F156800080C680008E9670008B1
:104740000000F83F286900088F68000801230B93D8
:10475000D4E7DDF88CB05B46CDF808B0A6E70131B0
:1047600041605200A6E76B6A089A1A60029B0E2B02
:1047700000F2A880002C00F0A580B9F1000F34DD14
:104780009A4A09F00F0302EBC30319F4807FD3E9BF
:104790000034CDE910344FEA291416D0DDE90C01BC
:1047A000934B0327D3E90823FBF7C0FFCDE90401AE
:1047B00004F00F048E4E54B9DDE91023DDE9040145
:1047C000FBF7B4FFCDE9040129E00227F2E7E10796
:1047D00008D5DDE91001D6E90023FBF77DFECDE920
:1047E0001001013764100836E5E700F0A580DDE927
:1047F0000C01C9F100047D4B04F00F0203EBC2036E
:10480000D3E90023FBF768FE02270023CDE904016A
:10481000774E2411002C40F08480002BD2D10F9BC6
:10482000002B00F08B80DDE90434CDE91034DDE9A4
:10483000100100226F4BFCF7C1F800287ED0029BCC
:10484000002B7BD0BBF1000F38DDDDE91001002229
:10485000694BFBF741FE5C46CDE9040109F1FF38E5
:1048600001373846FBF7CEFDDDE90423FBF734FEC4
:104870000022624BFBF77AFCA1F15076CDE91001E2
:104880001196002C5DD1DDE9040100225C4BFBF7A1
:104890006BFC02460B46CDE904233346109AFCF725
:1048A000ABF8002840F09E82DDE90401109A06F181
:1048B0000043FCF783F8002840F09282DDE90C34D5
:1048C000CDE90434179B002BC0F25381B9F10E0FD0
:1048D00000F34F81454B03EBC903D3E90034CDE925
:1048E0000634239B002B80F2DB80029B002B00F31D
:1048F000D78040F07482DDE906010022404BFBF7CF
:10490000EBFDDDE90423FCF76DF8029C2646002848
:1049100040F04A823123089F09F1010907F8013B61
:1049200046E2E20705D5D6E90023FBF7D5FD0123D2
:104930000137641008366DE7022770E7C846029C0D
:104940008FE70899294B214412910B9903EBC4037B
:10495000DDE9106753E90223002955D000202949D9
:10496000FBF7E4FE3B463246FBF7FEFBCDE91001C8
:10497000089FDDE90401FCF75FF80446FBF742FD00
:1049800002460B46DDE90401FBF7EEFB02460B464F
:104990003034CDE90423DDE9102307F8014BFCF79F
:1049A0000DF8002874D1DDE9042300201149FBF73C
:1049B000DBFBDDE91023FCF701F8002840F0B680AE
:1049C000129B9F423FF47AAFDDE9100100220A4BAF
:1049D000FBF782FD0022CDE91001DDE90401064B61
:1049E000FBF77AFDCDE90401C3E700BF28690008A1
:1049F000006900080000F03F0000244000001C4057
:104A0000000014400000E03F30463946FBF764FDEB
:104A1000129BCDE91001089C1493DDE90401FCF719
:104A20000BF81590FBF7EEFC02460B46DDE904019E
:104A3000FBF79AFB159B0646303304F8013B129BAB
:104A40000F469C424FF0000224D1DDE91001B34B28
:104A5000FBF78CFB02460B4630463946FBF7CCFF92
:104A6000002862D1DDE910230020AC49FBF77CFB74
:104A700002460B4630463946FBF7A0FF00283FF4BC
:104A80001DAF149F7B1E149317F8013C302BF8D0F8
:104A9000C1463AE0A24BFBF71FFDCDE90401BCE79C
:104AA000089FDDE90623DDE90401FBF73FFEFBF784
:104AB000C3FF0446FBF7A6FCDDE90623FBF70CFD6C
:104AC00004F130060B460246DDE90401FBF74CFB1E
:104AD00007F8016B089E029BBE1BB3423AD1024607
:104AE0000B46FBF743FB02460B46CDE90223DDE90B
:104AF0000623FBF781FF58BBDDE90623DDE9020150
:104B0000FBF752FF08B1E10722D42846514600F0D6
:104B1000F1FA00233B70249B09F101001860269BE9
:104B2000002B3FF4DFAC1F60DCE427463B461F460A
:104B300013F8012D392A07D1089A9A42F7D1302269
:104B4000089908F101080A701A7801321A709FE773
:104B5000C846EBE70022724BFBF7BEFC02460B4651
:104B6000CDE9042300220023FBF71EFF002898D084
:104B7000CBE70B9A002A00F0CD80229A012A00F39D
:104B8000AF80139A002A00F0A78003F233430A9CF7
:104B9000069F069A01211A440692099A28461A4449
:104BA000099200F061FB0646002F0CDD099B002BEB
:104BB00009DDBB42A8BF3B46069AFF1AD21A0692ED
:104BC000099AD31A09930A9BF3B10B9B002B00F0AF
:104BD000A980002C10DD31462246284600F0FEFB5D
:104BE000524601460646284600F054FB8046514690
:104BF000284600F07FFAC2460A9B1A1B04D0514691
:104C0000284600F0EBFB82460121284600F02CFBF1
:104C10000E9B0446002B40F387801A460146284627
:104C200000F0DCFB229B0446012B40F380804FF018
:104C30000008236904EB8303186900F0C7FAC0F188
:104C40002000099B184410F01F0000F09280C0F172
:104C50002003042B40F38A80C0F11C00069B07440C
:104C600003440693099B03440993069B002B05DD2F
:104C700051461A46284600F00BFC8246099B002B41
:104C800005DD21461A46284600F002FC04460F9B2B
:104C9000002B70D02146504600F066FC00286ADAEE
:104CA000002351460A22284600F046FA0B9B824612
:104CB00009F1FF39002B00F09381314600230A22CD
:104CC000284600F039FABBF1000F064600F3938046
:104CD000229B022B57DC8EE0169BC3F1360356E76E
:104CE000029B5C1E0A9BA342B7BF0A9B1C1BE21AD5
:104CF0000E9BBEBF0A949B180E93029BB8BF002464
:104D0000002BBBBF069B029A069F9F1AACBF029B5B
:104D100000233EE70A9C069F0B9E45E70000E03F0C
:104D2000000024400A9A6AE7229B012B19DC049BAD
:104D3000BBB9059BC3F313039BB9059B23F0004349
:104D40001B0D1B0583B14FF00108069B0133069331
:104D5000099B013309930E9B002B7FF46AAF01205E
:104D60006FE74FF00008F6E79846F4E73FF47DAFB1
:104D700018461C3072E7029B002B36DC229B022B6C
:104D800033DDDDF808B0BBF1000F0DD121465B46E5
:104D90000522284600F0D0F901460446504600F0AE
:104DA000E3FB00283FF7B6AD239B089F6FEA03099A
:104DB0004FF000082146284600F09CF9002E3FF4F1
:104DC000A4AEB8F1000F05D0B04503D04146284647
:104DD00000F090F93146284600F08CF995E6002461
:104DE0002646E1E7C146264694E50B9BDDF808B070
:104DF000002B00F0FC80002F05DD31463A462846A6
:104E000000F046FB0646B8F1000F5CD028467168FA
:104E100000F030F9074628B9024640F2EA217E4BFD
:104E2000FFF726BB326906F10C01023292000C300A
:104E300000F012F901223946284600F029FBB0465D
:104E40000646089B01330293089B5B440A93049B2C
:104E500003F001030993029B2146504603F1FF3BF7
:104E6000FFF764FA034641463033049050460B93F3
:104E700000F07AFB324606902146284600F090FB6F
:104E8000C26807460B9B02BB0146504600F06CFB14
:104E900002460B9B39462846CDE90B3200F02AF931
:104EA000229B0C9A029F43EA0201099B0B430B9B36
:104EB0000DD1392B27D0069A002A01DD049B31330E
:104EC0008BF8003076E73046B9E70122E2E7069931
:104ED000002904DB229801430998014320D1002ACC
:104EE000EEDD514601222846029300F0D1FA214618
:104EF000824600F039FB0028029B02DCE0D1DA0791
:104F0000DED5392BDAD139238BF800303B461F46EA
:104F100017F8012C013B392A50D001321A7049E7A9
:104F2000002A03DD392BEED00133C9E7029A0A9932
:104F300002F8013C8A422AD0514600230A22284620
:104F400000F0FAF8B04582464FF000034FF00A0235
:104F50004146284607D100F0EFF880460646029BFE
:104F60000133029377E700F0E7F8314680460023EB
:104F70000A22284600F0E0F80646F0E7BBF1000FF1
:104F8000CCBF5F4601274FF00008089A17445146EE
:104F900001222846029300F07BFA2146824600F067
:104FA000E3FA0028B2DC02D1029BDB07AED43B4619
:104FB0001F4613F8012D302AFAD0FBE6089A9A42D0
:104FC000A5D1312309F101091370F3E6134BFFF763
:104FD000A7BA269B002B7FF480AA114BFFF7A0BA3B
:104FE000BBF1000F03DC229B022B3FF7CCAE089FE6
:104FF00021465046FFF79AF9089A00F1300307F866
:10500000013BBA1A9345B9DD514600230A222846CE
:1050100000F092F88246EBE78F680008E867000826
:105020000C6800080048704760010020024B0146F0
:10503000186800F0FBBB00BF0C000020034610B551
:10504000C9B202449342184601D1002003E004781B
:1050500001338C42F6D110BD0A44914200F1FF3376
:1050600000D1704710B511F8014B914203F8014F80
:10507000F9D110BD70B5466A04460D4676B91020C8
:10508000FFF7D4FF0246606220B96621174B18482B
:1050900000F092FDC0E901660660C660666AF368CA
:1050A00083B1636ADB6853F82500B8B9012101FABE
:1050B00005F6721D2046920000F05EFB60B1C0E96B
:1050C00001560EE021220421204600F055FB636AC0
:1050D000F060DB68002BE4D1002070BD026843F86B
:1050E00025200023C0E90333F7E700BF1968000853
:1050F000A068000870B5466A05460C4676B91020CF
:10510000FFF794FF0246686220B98A21084B0948DC
:1051100000F052FDC0E901660660C6603CB16B6AF2
:105120006268DB6853F82210216043F8224070BDAA
:1051300019680008A06800082DE9F04198460C465F
:1051400000230E69074601F1140005680133A9B276
:1051500002FB01812D0C4FEA114C02FB05C589B2FF
:1051600001EB05419E424FEA154840F8041BECDC78
:10517000B8F1000F22D0A368B34219DC6168384649
:105180000131FFF777FF054628B90246B5210D4BDF
:105190000D4800F011FD226904F10C010232920069
:1051A0000C30FFF759FF21463846FFF7A3FF2C4686
:1051B00004EB86030136C3F8148026612046BDE85F
:1051C000F08100BF8F680008A0680008020C12047C
:1051D0000346CAB90304102013F07F4F04BF1B021B
:1051E000083013F0704F04BF1B01043013F0404F20
:1051F00004BF9B000230002B05DB13F0804F00F151
:10520000010008BF202070470020E5E70368024640
:1052100013F007000BD0D90722D4980749BF5B08C9
:105220009B08012013605CBF02201360704799B295
:1052300009B910201B0C13F0FF0F04BF1B0A083024
:10524000190704BF1B090430990704BF9B080230EB
:10525000D90703D45B0800F1010003D01360704745
:10526000002070472020704710B50C460121FFF741
:1052700001FF024628B94FF4A071044B044800F026
:105280009BFC01234461036110BD00BF8F680008CF
:10529000A06800082DE9F04F14460A6923690D46FD
:1052A0009A42BEBF0B4625461C46D5F810A0D4F83E
:1052B0001090AB6869680AEB0907BB4285B0B8BFBC
:1052C0000131FFF7D7FE30B9024640F25D11414B84
:1052D000414800F071FC00F114063346002206EB51
:1052E000870843451ED305F1140C04F114030CEB9D
:1052F0008A0C03EB89020292ACEB0502153A22F00C
:105300000302043205F115018C4538BF04220192D5
:10531000029A03939A4208D8002F55DC076105B022
:10532000BDE8F08F43F8042BDBE7B3F800A0BAF137
:10533000000F20D0B146002205F1140E5EF8044B98
:10534000D9F800B0A1B21FFA8BFB0AFB01B11144DE
:10535000D9F80020240C120C0AFB042404EB11449D
:1053600089B241EA0441F4454FEA144249F8041B6A
:10537000E4D801997250039A0433B2F80290B9F15B
:10538000000F1FD0B6464FF0000A346805F1140133
:105390000A88BEF802B0A4B209FB02B2924444EA01
:1053A0000A444EF8044B51F8044BBEF80020240C7C
:1053B00009FB04248C4504EB1A444FEA144AE7D84D
:1053C000019AB4500436A3E758F8043D002BA5D148
:1053D000013FA1E78F680008A06800082DE9F843A5
:1053E000154612F0030206460F4607D0254C013A37
:1053F000002354F82220FFF79FFE0746AD103DD052
:10540000746A7CB91020FFF711FE0246706228B959
:105410004FF4D7711C4B1D4800F0CEFBC0E901448E
:105420000460C460D6F82480D8F808404CB940F233
:1054300071213046FFF718FF00230446C8F8080022
:1054400003604FF00009EB070AD539462246304683
:10545000FFF720FF804639463046FFF74BFE4746B0
:105460006D100BD0206838B9224621463046FFF730
:1054700011FF2060C0F800900446E4E73846BDE81C
:10548000F88300BFF069000819680008A0680008E8
:105490002DE9F0470C46074691462369496803EB1E
:1054A0006218A3684FEA621A08F10106B3420BDBE7
:1054B0003846FFF7DFFD054648B9024640F2D911EC
:1054C000274B284800F078FB01315B00EEE7002312
:1054D00000F1140100F110021846534533DB206936
:1054E0002AEAEA7A04F1140319F01F0901EB8A0190
:1054F00003EB800C2BD08A460022C9F1200E1868DD
:1055000000FA09F002434AF8042B53F8042B9C4597
:1055100022FA0EF2F3D8ACEB0403153B23F003039D
:10552000043304F11500844538BF0423CA500AB17E
:1055300008F10206013E384621462E61FFF7DAFDEA
:105540002846BDE8F08742F8040F0133C5E7043967
:1055500053F8042B9C4541F8042FF9D8EAE700BF23
:105560008F680008A068000803460A69006930B522
:10557000801A0DD11433143103EB820401EB820144
:1055800054F8045D51F8042D954202D004D3012053
:1055900030BDA342F4D3FBE74FF0FF30F8E7000043
:1055A0002DE9F84F0C460646114620469246FFF775
:1055B000DBFF051E11D129463046FFF75BFD024691
:1055C00028B940F232213C4B3C4800F0F5FA012367
:1055D000C0E904351046BDE8F88FA4BF5346A24683
:1055E0003046DAF80410A6BF1C4600250125FFF757
:1055F00041FD024618B94FF410712F4BE4E700F15A
:105600001408DAF81070C5604FF0000C0AF11405A8
:105610000AF11000C246266904F1140905EB870E51
:1056200009EB860650F804BF59F8043B1FFA8BF1CA
:1056300061441FFA83FC1B0CA1EB0C01C3EB1B4361
:1056400003EB214389B24FEA234C4E4541EA034321
:105650004AF8043BE6D8331B153B23F0030315340B
:105660000433A64238BF04231D4443441E462C463F
:1056700074450ED30EF10301491B21F00301033DD4
:10568000AE4538BF0021194451F8043D8BB1176174
:10569000A0E754F8048B1FFA88F16144081400EB6A
:1056A000184089B241EA00414FEA204C46F8041BF9
:1056B000DEE7013FE8E700BF8F680008A068000848
:1056C0002DE9F3410121DDE9087690461D46FFF7FB
:1056D000D1FC044630B9024640F20A31244B254839
:1056E00000F06AFAC5F31303C5F30A552DBB019305
:1056F000B8F1000326D068460093FFF787FD0099B4
:10570000F0B1019AC0F1200302FA03F30B43C24047
:1057100063610192019B002B14BF02210121A3614F
:105720002161C5B1A5F233450544C0F135003D60A6
:105730003060204602B0BDE8F08143F48013D6E724
:105740006161E7E701A8FFF761FD0121019B21618C
:1057500063612030E5E704EB8103A0F2324038605A
:105760001869FFF733FDC0EB41113160E1E700BF7D
:105770008F680008A068000838B502FB01F52946CB
:1057800000F054F8044618B12A460021FEF746F905
:10579000204638BD38B50546002943D051F8043CB1
:1057A0000C1F002BB8BFE41800F062FA1E4A136801
:1057B000104633B9636014602846BDE8384000F0F5
:1057C0005DBAA3420AD921686218934201BF1A68E0
:1057D0005B685218226063600460EDE71A465B68FC
:1057E0000BB1A342FAD911685018A0420BD120681E
:1057F0000144501883421160DED118685B6801448F
:1058000011605360D8E702D90C232B60D4E72068DD
:1058100021188B4201BF19685B6809182160636019
:105820005460C9E738BD00BF00020020F8B5CD1CA8
:1058300025F0030508350C2D38BF0C25002D064634
:1058400001DBA94203D90C2333600020F8BD00F02E
:105850000FFA21490A6814469CB9204F3B6823B9C6
:105860002146304600F098F938602946304600F06D
:1058700093F9431C23D10C233046336000F0FEF92A
:10588000E3E723685B1B17D40B2B03D923601C446D
:10589000256004E06368A2420CBF0B605360304691
:1058A00000F0ECF904F10B00231D20F00700C21AF0
:1058B000CCD01B1AA350C9E722466468CCE7C41CAD
:1058C00024F00304A042E3D0211A304600F064F92A
:1058D0000130DDD1CFE700BF00020020040200202C
:1058E0002DE9F0478E6882469E420C4690461F4640
:1058F00038D88A8912F4906F32D02568096901334B
:10590000A5EB010965694B4405EB450505EBD5752C
:105910006D109D4238BF1D46530531D52946FFF70E
:1059200085FF064650B90C234FF0FF30CAF800300F
:10593000A38943F04003A381BDE8F0874A4621696B
:10594000FFF78AFBA38923F4906343F08003A381CC
:1059500026614E4426603E466561A5EB0905A560BB
:10596000BE4200D93E4632464146206800F066F904
:10597000A36822689B1B32440020A3602260DBE7FF
:105980002A4600F081F906460028E1D150462169F7
:10599000FFF700FFC7E700002DE9F04F98468B891D
:1059A00007461B060D4614469DB00ED50B6963B91C
:1059B0004021FFF73BFF2860286120B90C233B60A2
:1059C0004FF0FF30D1E040236B6100230993202387
:1059D0008DF8293030234FF00109CDF80C80DFF825
:1059E000A4818DF82A3023469A4613F8012B0AB178
:1059F000252AF9D1BAEB040B0BD05B462246294687
:105A00003846FFF76DFF013000F0AA80099A5A442A
:105A100009929AF80030002B00F0A28000234FF08A
:105A2000FF32CDE905230AF1010A049307938DF8AB
:105A300053301A935446052214F8011B5148FFF7BE
:105A4000FDFA049AD8B9D00644BF20238DF853300C
:105A5000110744BF2B238DF853309AF800302A2BBE
:105A600015D0544600204FF00A0C079A214611F831
:105A7000013B303B092B4ED9B0B1079214E0A0EBAB
:105A8000080309FA03F31343A2460493D2E7039BE6
:105A9000191D1B680391002BBBBF5B4242F0020241
:105AA00007930793B8BF049223782E2B0CD1637809
:105AB0002A2B35D1039B02341A1D1B680392002B3D
:105AC000B8BF4FF0FF330593DFF8C8A0032250465C
:105AD0002178FFF7B3FA40B14023A0EB0A0003FAA4
