:020000040800F2
:1000000000280020C9190008FD1500080316000883
:10001000091600080F160008151600080000000059
:100020000000000000000000000000001B16000897
:100030002716000800000000331600083F160008CD
:10004000111A0008111A0008111A0008111A0008E4
:10005000111A0008111A00084D1600087116000840
:10006000111A0008111A0008111A0008111A0008C4
:10007000111A0008111A0008111A0008111A0008B4
:10008000111A0008111A0008111A0008111A0008A4
:10009000111A0008111A0008111A0008111A000894
:1000A000111A0008111A0008111A0008111A000884
:1000B00095160008111A000800000000111A000827
:1000C000111A00080000000000000000111A0008CA
:1000D0000000000005170008111A000800000000C9
:1000E000111A0008111A0008111A00080000000077
:1000F0000000000000000000000000000000000000
:0C01000000000000000000005FF808F1A3
:1001100010B5054C237833B9044B13B10448AFF341
:1001200000800123237010BD0802002000000000A1
:10013000BC78000808B5034B1BB103490348AFF373
:10014000008008BD000000000C020020BC78000800
:10015000034613F8012B002AFBD1181A0138704707
:1001600081F0004102E000BF83F0004330B54FEA68
:1001700041044FEA430594EA050F08BF90EA020FD5
:100180001FBF54EA000C55EA020C7FEA645C7FEA68
:10019000655C00F0E2804FEA5454D4EB5555B8BF8B
:1001A0006D420CDD2C4480EA020281EA030382EAFC
:1001B000000083EA010180EA020281EA0303362D8E
:1001C00088BF30BD11F0004F4FEA01314FF4801C61
:1001D0004CEA113102D0404261EB410113F0004F73
:1001E0004FEA03334CEA133302D0524263EB43032A
:1001F00094EA050F00F0A780A4F10104D5F1200EC8
:100200000DDB02FA0EFC22FA05F2801841F1000122
:1002100003FA0EF2801843FA05F359410EE0A5F1F6
:1002200020050EF1200E012A03FA0EFC28BF4CF027
:10023000020C43FA05F3C01851EBE37101F00045DD
:1002400007D54FF0000EDCF1000C7EEB00006EEBEA
:100250000101B1F5801F1BD3B1F5001F0CD3490874
:100260005FEA30004FEA3C0C04F101044FEA4452CB
:1002700012F5800F80F09A80BCF1004F08BF5FEA52
:10028000500C50F1000041EB045141EA050130BD32
:100290005FEA4C0C404141EB0101013C28BFB1F544
:1002A000801FE9D291F0000F04BF01460020B1FA8F
:1002B00081F308BF2033A3F10B03B3F120020CDA62
:1002C0000C3208DD02F1140CC2F10C0201FA0CF040
:1002D00021FA02F10CE002F11402D8BFC2F1200CA5
:1002E00001FA02F120FA0CFCDCBF41EA0C0190405B
:1002F000E41AA2BF01EB0451294330BD6FEA0404A4
:100300001F3C1CDA0C340EDC04F11404C4F120028E
:1003100020FA04F001FA02F340EA030021FA04F3A0
:1003200045EA030130BDC4F10C04C4F1200220FAF7
:1003300002F001FA04F340EA0300294630BD21FA35
:1003400004F0294630BD94F0000F83F4801306BFFB
:1003500081F480110134013D4EE77FEA645C18BFEF
:100360007FEA655C29D094EA050F08BF90EA020F86
:1003700005D054EA000C04BF1946104630BD91EA7E
:10038000030F1EBF0021002030BD5FEA545C05D181
:100390004000494128BF41F0004130BD14F58004C0
:1003A0003CBF01F5801130BD01F0004545F0FE4134
:1003B00041F470014FF0000030BD7FEA645C1ABF69
:1003C000194610467FEA655C1CBF0B46024650EAA0
:1003D000013406BF52EA033591EA030F41F40021CC
:1003E00030BD00BF90F0000F04BF0021704730B552
:1003F0004FF4806404F132044FF000054FF0000127
:1004000050E700BF90F0000F04BF0021704730B5E7
:100410004FF4806404F1320410F0004548BF4042BC
:100420004FF000013EE700BF42004FEAE2014FEA11
:1004300031014FEA02701FBF12F07F4393F07F4FEC
:1004400081F06051704732F07F4208BF704793F0EF
:100450007F4F04BF41F40021704730B54FF4607402
:1004600001F0004521F000411CE700BF50EA010205
:1004700008BF704730B54FF000050AE050EA0102AE
:1004800008BF704730B511F0004502D5404261EB1E
:1004900041014FF4806404F132045FEA915C3FF45F
:1004A000D8AE4FF003025FEADC0C18BF03325FEAFC
:1004B000DC0C18BF033202EBDC02C2F1200300FAAD
:1004C00003FC20FA02F001FA03FE40EA0E0021FAD2
:1004D00002F11444BDE600BF70B54FF0FF0C4CF4C0
:1004E000E06C1CEA11541DBF1CEA135594EA0C0F72
:1004F00095EA0C0F00F0DEF82C4481EA030621EAAD
:100500004C5123EA4C5350EA013518BF52EA0335E7
:1005100041F4801143F4801338D0A0FB02CE4FF099
:100520000005E1FB02E506F00042E0FB03E54FF0C9
:100530000006E1FB03569CF0000F18BF4EF0010EC1
:10054000A4F1FF04B6F5007F64F5407404D25FEABD
:100550004E0E6D4146EB060642EAC62141EA555170
:100560004FEAC52040EA5E504FEACE2EB4F1FD0CB2
:1005700088BFBCF5E06F1ED8BEF1004F08BF5FEA30
:10058000500E50F1000041EB045170BD06F00046E2
:1005900046EA010140EA020081EA0301B4EB5C048F
:1005A000C2BFD4EB0C0541EA045170BD41F4801187
:1005B0004FF0000E013C00F3AB8014F1360FDEBFAC
:1005C000002001F0004170BDC4F10004203C35DA88
:1005D0000C341BDC04F11404C4F1200500FA05F30B
:1005E00020FA04F001FA05F240EA020001F00042AC
:1005F00021F0004110EBD37021FA04F642EB060122
:100600005EEA430E08BF20EAD37070BDC4F10C044B
:10061000C4F1200500FA04F320FA05F001FA04F20F
:1006200040EA020001F0004110EBD37041F10001FB
:100630005EEA430E08BF20EAD37070BDC4F1200506
:1006400000FA05F24EEA020E20FA04F301FA05F26E
:1006500043EA020321FA04F001F0004121FA04F216
:1006600020EA020000EBD3705EEA430E08BF20EAE6
:10067000D37070BD94F0000F0FD101F00046400020
:1006800041EB010111F4801F08BF013CF7D041EAA2
:10069000060195F0000F18BF704703F000465200A6
:1006A00043EB030313F4801F08BF013DF7D043EA77
:1006B0000603704794EA0C0F0CEA135518BF95EA2D
:1006C0000C0F0CD050EA410618BF52EA4306D1D1B4
:1006D00081EA030101F000414FF0000070BD50EAD3
:1006E000410606BF1046194652EA430619D094EA5D
:1006F0000C0F02D150EA013613D195EA0C0F05D147
:1007000052EA03361CBF104619460AD181EA03019A
:1007100001F0004141F0FE4141F470014FF0000052
:1007200070BD41F0FE4141F4780170BD70B54FF0ED
:10073000FF0C4CF4E06C1CEA11541DBF1CEA13556D
:1007400094EA0C0F95EA0C0F00F0A7F8A4EB05044F
:1007500081EA030E52EA03354FEA013100F0888046
:100760004FEA03334FF0805545EA131343EA12630F
:100770004FEA022245EA111545EA10654FEA0026C4
:100780000EF000419D4208BF964244F1FD0404F57D
:10079000407402D25B084FEA3202B61A65EB0305D9
:1007A0005B084FEA32024FF480104FF4002CB6EB96
:1007B000020E75EB030E22BFB61A754640EA0C0016
:1007C0005B084FEA3202B6EB020E75EB030E22BF56
:1007D000B61A754640EA5C005B084FEA3202B6EB97
:1007E000020E75EB030E22BFB61A754640EA9C0056
:1007F0005B084FEA3202B6EB020E75EB030E22BF26
:10080000B61A754640EADC0055EA060E18D04FEAE3
:10081000051545EA16754FEA06164FEAC30343EA83
:1008200052734FEAC2025FEA1C1CC0D111F4801F50
:100830000BD141EA00014FF000004FF0004CB6E749
:1008400011F4801F04BF01430020B4F1FD0C88BFE8
:10085000BCF5E06F3FF6AFAEB5EB030C04BFB6EBF3
:10086000020C5FEA500C50F1000041EB045170BDE6
:100870000EF0004E4EEA113114EB5C04C2BFD4EB13
:100880000C0541EA045170BD41F480114FF0000E97
:10089000013C90E645EA060E8DE60CEA135594EA13
:1008A0000C0F08BF95EA0C0F3FF43BAF94EA0C0F16
:1008B0000AD150EA01347FF434AF95EA0C0F7FF48B
:1008C00025AF104619462CE795EA0C0F06D152EADF
:1008D00003353FF4FDAE1046194622E750EA4106C3
:1008E00018BF52EA43067FF4C5AE50EA41047FF4D4
:1008F0000DAF52EA43057FF4EBAE12E74FF0FF3C39
:1009000006E000BF4FF0010C02E000BF4FF0010C09
:100910004DF804CD4FEA410C7FEA6C5C4FEA430C82
:1009200018BF7FEA6C5C1BD001B050EA410C0CBFD1
:1009300052EA430C91EA030F02BF90EA020F002033
:10094000704710F1000F91EA030F58BF994208BF9A
:1009500090422CBFD8176FEAE37040F00100704757
:100960004FEA410C7FEA6C5C02D150EA013C07D1AE
:100970004FEA430C7FEA6C5CD6D152EA033CD3D0F9
:100980005DF8040B704700BF8446104662468C46F3
:100990001946634600E000BF01B5FFF7B7FF002826
:1009A00048BF10F1000F01BD4DF808EDFFF7F4FF4F
:1009B0000CBF012000205DF808FB00BF4DF808EDDA
:1009C000FFF7EAFF34BF012000205DF808FB00BFFD
:1009D0004DF808EDFFF7E0FF94BF012000205DF81F
:1009E00008FB00BF4DF808EDFFF7CEFF94BF0120D4
:1009F00000205DF808FB00BF4DF808EDFFF7C4FFCD
:100A000034BF012000205DF808FB00BF4FEA410C15
:100A10007FEA6C5C02D150EA013C0AD14FEA430CF8
:100A20007FEA6C5C02D152EA033C02D14FF0000035
:100A300070474FF0010070474FEA410212F5001273
:100A400015D211D56FF47873B3EB625212D94FEA15
:100A5000C12343F0004343EA505311F0004F23FAFF
:100A600002F018BF404270474FF00000704750EA54
:100A7000013005D111F0004008BF6FF00040704711
:100A80004FF00000704700BF4FEA4102B2F1E0436F
:100A900024BFB3F5001CDCF1FE5C0DD901F0004C65
:100AA0004FEAC0024CEA5070B2F1004F40EB8300B5
:100AB00008BF20F00100704711F0804F21D113F1E1
:100AC0003872BCBF01F00040704741F480114FEA1A
:100AD0005252C2F11802C2F1200C10FA0CF320FAA3
:100AE00002F018BF40F001004FEAC1234FEAD323C0
:100AF00003FA0CFC40EA0C0023FA02F34FEA43032A
:100B0000CCE77FEA625307D150EA01331EBF4FF0B2
:100B1000FE4040F44000704701F0004040F0FE40CD
:100B200040F40000704700BF4FF0FF3C06E000BFFC
:100B30004FF0010C02E000BF4FF0010C4DF804CD66
:100B40004FEA40024FEA41037FEA226C18BF7FEA76
:100B5000236C11D001B052EA530C18BF90EA010F78
:100B600058BFB2EB030088BFC81738BF6FEAE17007
:100B700018BF40F0010070477FEA226C02D15FEAA3
:100B8000402C05D17FEA236CE4D15FEA412CE1D00F
:100B90005DF8040B704700BF844608466146FFE7D6
:100BA0000FB5FFF7C9FF002848BF10F1000F0FBDB8
:100BB0004DF808EDFFF7F4FF0CBF012000205DF8B1
:100BC00008FB00BF4DF808EDFFF7EAFF34BF012036
:100BD00000205DF808FB00BF4DF808EDFFF7E0FFCF
:100BE00094BF012000205DF808FB00BF4DF808ED20
:100BF000FFF7D2FF94BF012000205DF808FB00BF83
:100C00004DF808EDFFF7C8FF34BF012000205DF864
:100C100008FB00BF80B582B000AF03460A46FB71F7
:100C20001346BB71BB791A464FF48041224801F04C
:100C300020FF01224FF400511F4801F01AFF01204C
:100C400000F04AFFFB7903F00103DBB21A464021B2
:100C5000194801F00EFFFB795B08DBB203F00103DA
:100C6000DBB21A462021144801F003FFFB799B08F0
:100C7000DBB203F00103DBB21A4610210E4801F08B
:100C8000F8FEFB79DB08DBB203F00103DBB21A46A6
:100C90000821094801F0EDFE012000F01DFF0022AF
:100CA0004FF40051044801F0E4FE012000F014FF6D
:100CB00000BF0837BD4680BD0008014080B582B046
:100CC00000AF03460A46FB711346BB71FB791B0953
:100CD000DBB2BA7911461846FFF79CFFFB7903F0A7
:100CE0000F03DBB2BA7911461846FFF793FF00BF36
:100CF0000837BD4680BD80B584B000AF78607868A5
:100D0000FFF726FA0346BB600023FB600AE0FB689E
:100D10007A6813441B7801211846FFF7CFFFFB6860
:100D20000133FB60FA68BB689A42F0DB00BF00BF8A
:100D30001037BD4680BD000080B584B000AF78603C
:100D40007868FFF771FB02460B4607F10800064979
:100D500004F07AFB07F108031846FFF7CCFF00BF49
:100D60001037BD4680BD00BFD878000880B500AF01
:100D700000210320FFF74EFF052000F0ADFE00210B
:100D80000320FFF747FF012000F0A6FE002103200B
:100D9000FFF740FF012000F09FFE00210220FFF737
:100DA00039FF012000F098FE00212820FFF786FF80
:100DB000012000F091FE00210C20FFF77FFF0120B1
:100DC00000F08AFE00BF80BD80B582B000AF7860C1
:100DD0007868FFF7BDF903469AB24FF47A737968E1
:100DE000034803F047F800BF0837BD4680BD00BF89
:100DF0007002002080B500AF0748FFF7E5FF074B02
:100E000001221A700648FFF7DFFF01220549064854
:100E100003F0BBF800BF80BDE0780008300200207E
:100E200000000020000300207002002080B500AF09
:100E30000348FFF7C9FF034B00221A7000BF80BDB3
:100E4000F47800083002002080B584B000AF03467B
:100E5000FB710B46BB7113467B71BB79012B0BD128
:100E6000FB799BB201221946104801F002FE7B7902
:100E70000F49BA79CA5415E0FB799BB20022194692
:100E80000A4801F0F6FD0023FB6007E0084AFB6812
:100E90001344BA791A70FB680133FB607B79FA68F6
:100EA0009A42F3DB00BF1037BD4680BD000C014005
:100EB0002402002080B584B000AF1248FFF784FF01
:100EC0000023FB600DE0104AFB6813441B783033AD
:100ED000D9B23A46FB6813440A461A70FB680133DC
:100EE000FB60FB68072BEEDD0D233B7239464FF4A8
:100EF0007A730922054802F0BDFF00BF1037BD46D6
:100F000080BD00BF08790008240200207002002084
:100F100080B58CB002AF00F027FA7862786AFFF7EC
:100F200083FA02460B46381DCDE90023094A1E21EB
:100F300004F056FA3B1D1846FFF70AF903469AB229
:100F4000391D4FF0FF33044802F094FF00BF2837EB
:100F5000BD4680BD187900087002002080B58CB0B5
:100F600002AF00F057FD00F07DF800F087F900F0C7
:100F700055F900F005F900F0C5F8FFF7F7FE2F4826
:100F800002F094FB2E4B1B78002BFBD000F0ECF909
:100F900078622C4B1B681946786AFFF709FE0346F6
:100FA000002B4AD12849786AFFF70CFE0346002B34
:100FB00018D0786AFFF738FA02460B46381DCDE99B
:100FC0000023224A1E2104F00BFA3B1D1846FFF7AE
:100FD000BFF803469AB2391D4FF0FF331C4802F0A8
:100FE00049FF02E01B48FFF7EFFE164A7B6A1360D9
:100FF00000210120FFF762FE1748FFF77CFE12492F
:10100000786AFFF7F3FD0346002B09D01348FFF77A
:1010100072FE01224FF40041114801F02AFD08E060
:1010200000224FF400410E4801F023FD786AFFF7DB
:1010300083FE4FF4FA7000F04FFDA3E7B8020020E2
:10104000300200202800002000008C423079000887
:101050007002002014000020447900085079000834
:10106000000C014080B594B000AF07F1280328229E
:101070000021184603F04CFD07F1140300221A600A
:101080005A609A60DA601A613B1D00221A605A6049
:101090009A60DA600223BB620123BB631023FB6307
:1010A00000237B6407F12803184601F035FD034651
:1010B000002B01D000F0B6F90F237B610023BB6148
:1010C0000023FB6100233B6200237B6207F11403D2
:1010D0000021184601F0A0FF0346002B01D000F0CC
:1010E000A1F902237B600023FB603B1D184602F040
:1010F00021F90346002B01D000F094F900BF5037CE
:10110000BD4680BD80B584B000AF3B1D00221A6093
:101110005A609A60184B194A1A60174B00229A605D
:10112000154B01221A73144B00221A75124B4FF4FF
:101130006022DA61104B00225A600F4B01221A61C3
:101140000D4800F0EDFC0346002B01D000F06AF9D9
:1011500002237B600123BB600023FB603B1D19461B
:10116000054800F0A1FF0346002B01D000F05AF91A
:1011700000BF1037BD4680BD400200200024014062
:1011800080B586B000AF07F1080300221A605A60EC
:101190009A60DA603B4600221A605A601E4B4FF09C
:1011A00080421A601C4B4FF4FA525A601A4B0022CC
:1011B0009A60194B40F2F312DA60174B00221A6161
:1011C000154B00229A61144802F020FA0346002BC6
:1011D00001D000F027F94FF48053BB6007F10803FA
:1011E00019460D4802F09EFB0346002B01D000F08B
:1011F00019F900233B6000237B603B4619460648F3
:1012000002F07EFD0346002B01D000F00BF900BF79
:101210001837BD4680BD00BFB802002080B500AFC2
:10122000134B144A1A60124B4FF416525A60104B6B
:1012300000229A600E4B0022DA600D4B00221A61E8
:101240000B4B0C225A610A4B00229A61084B002278
:10125000DA61074802F0BEFD0346002B01D000F022
:10126000E1F801220449024802F08FFE00BF80BD70
:1012700070020020003801400003002080B586B0D5
:1012800000AF07F1080300221A605A609A60DA6022
:10129000304B9B692F4A43F0040393612D4B9B69AC
:1012A00003F004037B607B682A4B9B69294A43F067
:1012B00008039361274B9B6903F008033B603B687D
:1012C000002246F67801244801F0D3FB002248F2C0
:1012D000FF01224801F0CDFB0323BB60204BFB60E4
:1012E00002233B6107F1080319461B4801F030FA5D
:1012F00046F67803BB600123FB6000233B610223B9
:101300007B6107F108031946134801F021FA48F2FE
:10131000FF03BB600123FB6000233B6102237B6171
:1013200007F1080319460D4801F012FA00220021C6
:10133000062001F024F9062001F03DF900220021E9
:10134000072001F01CF9072001F035F900BF18371C
:10135000BD4680BD0010024000080140000C014065
:10136000000011100000000080B582B000AF2848D6
:1013700000F0AEFC4FF0FF31254800F083FD24481B
:1013800000F086FE0346234A1360214800F04EFD1C
:10139000204B1B681846FFF725F84FF000021E4B44
:1013A000FFF79AF802460B46104619464FF0000226
:1013B0001A4BFFF7BBF902460B4610461946FFF7DA
:1013C00063FB03467B607868FFF72EF80EA3D3E932
:1013D0000023FEF7C9FE02460B46104619464FF0A1
:1013E00000020F4BFFF778F802460B4610461946ED
:1013F000FFF74AFB03463B603B6818460837BD468B
:1014000080BD00BFAFF30080FCA9F1D24D62603F08
:10141000400200202C020020000014400000B040D8
:101420000000594080B400AF72B600BFFEE7000074
:1014300080B485B000AF154B9B69144A43F001039B
:101440009361124B9B6903F00103BB60BB680F4BB8
:10145000DB690E4A43F08053D3610C4BDB6903F028
:1014600080537B607B680A4B5B68FB60FB6823F002
:10147000E063FB60FB6843F08063FB60044AFB6849
:10148000536000BF1437BD4680BC70470010024057
:101490000000014080B588B000AF786007F110030C
:1014A00000221A605A609A60DA607B681B68144AEE
:1014B000934221D1134B9B69124A43F40073936109
:1014C000104B9B6903F40073FB60FB680D4B9B6939
:1014D0000C4A43F0040393610A4B9B6903F0040335
:1014E000BB60BB6804233B6103237B6107F11003EE
:1014F0001946054801F02CF900BF2037BD4680BDD4
:1015000000240140001002400008014080B584B072
:1015100000AF78607B681B68B3F1804F13D10C4B30
:10152000DB690B4A43F00103D361094BDB6903F02C
:101530000103FB60FB68002200211C2001F01FF862
:101540001C2001F038F800BF1037BD4680BD00BF39
:101550000010024080B588B000AF786007F110033A
:1015600000221A605A609A60DA607B681B68204A21
:10157000934239D11F4B9B691E4A43F480439361C8
:101580001C4B9B6903F48043FB60FB68194B9B6910
:10159000184A43F004039361164B9B6903F004035C
:1015A000BB60BB684FF400733B6102237B61032384
:1015B000FB6107F1100319460F4801F0C9F84FF419
:1015C00080633B6100237B610023BB6107F1100353
:1015D0001946094801F0BCF800220021252000F03E
:1015E000CEFF252000F0E7FF00BF2037BD4680BDBD
:1015F00000380140001002400008014080B400AFF4
:10160000FEE780B400AFFEE780B400AFFEE780B431
:1016100000AFFEE780B400AFFEE780B400AF00BFCC
:10162000BD4680BC704780B400AF00BFBD4680BCE3
:10163000704780B400AF00BFBD4680BC704780B526
:1016400000AF00F02DFA00BF80BD000080B500AFF4
:101650000121064801F0F6F90346012B01D1FFF7FD
:10166000C9FB012001F036FA00BF80BD000801402F
:1016700080B500AF0221064801F0E4F90346012BD2
:1016800001D1FFF7D3FB022001F024FA00BF80BD97
:101690000008014080B500AF164802F053F84FF43F
:1016A0000061154801F0FDF9144B1B78002B1FD089
:1016B0000121134801F0F5F90221114801F0F1F977
:1016C00004210F4801F0EDF908210D4801F0E9F976
:1016D00010210B4801F0E5F92021094801F0E1F95A
:1016E0004021074801F0DDF98021054801F0D9F9D2
:1016F00000BF80BDB8020020000801403102002078
:10170000000C014080B500AF474802F063FC474B36
:101710001B78002B00F08680642301224449424854
:1017200002F0A8FB012242493F4802F02EFC03468A
:10173000002B77D13E4B1B78312B05D100220121A4
:101740000120FFF781FB4EE0394B1B78322B05D18E
:10175000012201210220FFF777FB44E0344B1B7884
:10176000332B05D1022201210420FFF76DFB3AE063
:101770002F4B1B78342B05D1032201210820FFF7C2
:1017800063FB30E02A4B1B78352B05D10422012165
:101790001020FFF759FB26E0254B1B78362B05D18F
:1017A000052201212020FFF74FFB1CE0204B1B7876
:1017B000372B05D1062201214020FFF745FB12E01F
:1017C0001B4B1B78382B05D1072201218020FFF706
:1017D0003BFB08E0164B1B78302B04D1082200217C
:1017E000FF20FFF731FB124B1B78532B01D1FFF782
:1017F00061FB0F4B1B78542B01D1FFF789FB0C4B7E
:101800001B78412B02D10B4B01221A70084B1B781D
:101810004F2B07D1074B00221A700022FF210648E8
:1018200001F027F900BF80BD7002002030020020C7
:101830000003002031020020000C014080B400AF02
:1018400001231846BD4680BC704780B582B000AF0A
:101850007860396003F032F9034616221A604FF0BF
:10186000FF3318460837BD4680BD80B582B000AF53
:1018700078604FF0FF317868FFF7E7FFFEE780B54B
:1018800086B000AFF860B9607A6000237B610AE03F
:10189000AFF300800146BB685A1CBA60CAB21A7026
:1018A0007B6901337B617A697B689A42F0DB7B68F4
:1018B00018461837BD4680BD80B586B000AFF860C9
:1018C000B9607A6000237B6109E0BB685A1CBA608A
:1018D0001B781846AFF300807B6901337B617A691E
:1018E0007B689A42F1DB7B6818461837BD4680BD9D
:1018F00080B483B000AF78604FF0FF3318460C37E8
:10190000BD4680BC704780B483B000AF786039605A
:101910003B684FF400525A60002318460C37BD460E
:1019200080BC704780B483B000AF78600123184654
:101930000C37BD4680BC704780B485B000AFF860FE
:10194000B9607A60002318461437BD4680BC7047E2
:1019500080B586B000AF7860144A154BD31A7B610E
:101960007B693B61134B1B68002B02D1114B124A60
:101970001A60104B1A687B6813443A699A4207D27E
:1019800003F09CF803460C221A604FF0FF3309E085
:10199000084B1B68FB60074B1A687B681344054AB9
:1019A0001360FB6818461837BD4680BD002800202C
:1019B00000040000340200201803002080B400AFAF
:1019C00000BFBD4680BC7047FFF7F8FF0B480C49CD
:1019D0000C4A002302E0D458C4500433C4188C428B
:1019E000F9D3094A094C002301E013600432A242F2
:1019F000FBD303F069F8FFF7B1FA7047000000204D
:101A0000080200207C7D0008080200201803002046
:101A1000FEE7000080B500AF084B1B68074A43F0A3
:101A200010031360032000F09FFD0F2000F008F862
:101A3000FFF7FEFC0023184680BD00BF00200240D7
:101A400080B582B000AF7860124B1A68124B1B78D9
:101A500019464FF47A73B3FBF1F3B2FBF3F3184674
:101A600000F0B7FD0346002B01D001230EE07B6898
:101A70000F2B0AD8002279684FF0FF3000F07FFD6D
:101A8000064A7B681360002300E0012318460837EC
:101A9000BD4680BD2C000020340000203000002016
:101AA00080B400AF054B1B781A46054B1B681344E6
:101AB000034A136000BFBD4680BC7047340000205D
:101AC0000403002080B400AF024B1B681846BD46DB
:101AD00080BC70470403002080B584B000AF7860FC
:101AE000FFF7F0FFB8607B68FB60FB68B3F1FF3F76
:101AF00005D00A4B1B781A46FB681344FB6000BFF5
:101B0000FFF7E0FF0246BB68D31AFA689A42F7D89B
:101B100000BF00BF1037BD4680BD00BF34000020AD
:101B200080B586B000AF78600023FB7500233B6171
:101B30000023BB600023FB607B68002B01D10123E5
:101B4000BEE07B689B68002B7B689B6A002B09D1F9
:101B50007B680022DA627B68002283F824207868A0
:101B6000FFF798FC786800F0F1FB0346FB757B6893
:101B70009B6A03F01003002B40F09980FB7D002B43
:101B800040F095807B689B6A23F4885323F002031E
:101B900043F002027B689A627B685A687B68DB6963
:101BA0001A437B681B7B5B001343BA681343BB601B
:101BB0007B689B68B3F5807F03D07B689B68012BB3
:101BC00002D14FF4807300E000233A6913433B6174
:101BD0007B681B7D012B19D17B681B7B002B09D1F6
:101BE0007B689B69013B5A033B69134343F40063E1
:101BF0003B610BE07B689B6A43F020027B689A6242
:101C00007B68DB6A43F001027B68DA627B681B68F1
:101C10005B6823F469417B681B683A690A435A6030
:101C20007B681B689A68284B13407A681268B96809
:101C30000B4393607B689B68B3F5807F03D07B6820
:101C40009B68012B04D17B681B69013B1B05FB6072
:101C50007B681B68DB6A23F470017B681B68FA6889
:101C60000A43DA627B681B689A68184B1340BA68AB
:101C70009A420BD17B680022DA627B689B6A23F070
:101C8000030343F001027B689A6218E07B689B6A59
:101C900023F0120343F010027B689A627B68DB6AD0
:101CA00043F001027B68DA620123FB7507E07B6881
:101CB0009B6A43F010027B689A620123FB75FB7DEF
:101CC00018461837BD4680BDFDF7E1FFFE0E1FFF29
:101CD00080B584B000AF78600023FB737B6893F815
:101CE0002430012B01D1022398E07B68012283F884
:101CF0002420786800F0D0FA0346FB73FB7B002BAE
:101D000040F087807B689B6A23F4407323F00103D3
:101D100043F480727B689A627B681B68414A9342F5
:101D200005D1414B5B6803F47023002B15D17B6810
:101D30009B6A23F480127B689A627B681B685B68ED
:101D400003F48063002B26D07B689B6A23F4405306
:101D500043F480527B689A621DE07B689B6A43F47F
:101D600080127B689A627B681B682F4A934204D07A
:101D70007B681B682B4A93420DD12B4B5B6803F4A5
:101D80008063002B07D07B689B6A23F4405343F4A5
:101D900080527B689A627B689B6A03F48053002BB5
:101DA00006D07B68DB6A23F006027B68DA6202E019
:101DB0007B680022DA627B68002283F824207B683B
:101DC0001B686FF002021A607B681B689B6803F453
:101DD0006023B3F5602F13D17B681B68114A9342CF
:101DE00005D1114B5B6803F47023002B08D17B688D
:101DF0001B689A687B681B6842F4A0029A600CE03A
:101E00007B681B689A687B681B6842F480129A6042
:101E100003E07B68002283F82420FB7B1846103700
:101E2000BD4680BD002801400024014080B584B03B
:101E300000AF78600023FB737B6893F82430012B9C
:101E400001D102231AE07B68012283F824207868FC
:101E500000F07CFA0346FB73FB7B002B09D17B6807
:101E60009B6A23F4885323F0010343F001027B684B
:101E70009A627B68002283F82420FB7B1846103787
:101E8000BD4680BD90B587B000AF78603960002353
:101E90007B610023FB6000233B61FFF713FE786149
:101EA0007B681B689B6803F48073002B0BD07B68F6
:101EB0009B6A43F020027B689A627B68002283F869
:101EC00024200123D3E07B681B685B6803F48073E4
:101ED000002B31D17B681B68DB6A03F47003002B95
:101EE0002AD121E03B68B3F1FF3F1DD03B68002BB6
:101EF00007D0FFF7E7FD02467B69D31A3A689A429A
:101F000012D27B681B681B6803F00203002B0BD105
:101F10007B689B6A43F004027B689A627B680022BC
:101F200083F824200323A2E07B681B681B6803F06E
:101F30000203002BD6D070E04F4B1C68022001F04A
:101F4000AFFA0346B4FBF3F27B681B6819694B4B8D
:101F50000B40002B18D17B681B68D968484B0B409D
:101F6000002B11D17B681B681969464B0B40002B75
:101F700008D17B681B68D968434B0B40002B01D10B
:101F8000142320E029231EE07B681B6819693D4B60
:101F90000B40002B06D17B681B68D9683A4B0B407D
:101FA000002B0DD07B681B681969384B0B40002B48
:101FB00008D17B681B68D968344B0B40002B01D1DA
:101FC000542300E0FC2302FB03F33B6121E03B6868
:101FD000B3F1FF3F1AD03B68002B07D0FFF772FD2B
:101FE00002467B69D31A3A689A420FD2FB683A6973
:101FF0009A420BD97B689B6A43F004027B689A6221
:102000007B68002283F82420032330E0FB6801333F
:10201000FB60FB683A699A42D9D87B681B686FF00D
:1020200012021A607B689B6A43F400727B689A62B2
:102030007B681B689B6803F46023B3F5602F15D1A0
:102040007B681B7B002B11D17B689B6A23F4807219
:102050007B689A627B689B6A03F48053002B05D1EE
:102060007B689B6A43F001027B689A6200231846F2
:102070001C37BD4690BD00BF2C000020244992248F
:102080002449920092244912922449004992240042
:1020900080B483B000AF78607B681B68DB6C184647
:1020A0000C37BD4680BC704780B485B000AF786007
:1020B00039600023FB730023BB607B6893F82430F6
:1020C000012B01D10223DCE07B68012283F824206C
:1020D0003B685B68062B1CD87B681B68596B3B68A8
:1020E0005A6813469B001344053B1F2202FA03F370
:1020F000DB4319403B6818683B685A6813469B00ED
:102100001344053B00FA03F27B681B680A435A63D9
:102110003CE03B685B680C2B1CD87B681B68196B28
:102120003B685A6813469B001344233B1F2202FA64
:1021300003F3DB4319403B6818683B685A68134651
:102140009B001344233B00FA03F27B681B680A439D
:102150001A631BE07B681B68D96A3B685A681346A0
:102160009B001344413B1F2202FA03F3DB43194057
:102170003B6818683B685A6813469B001344413B10
:1021800000FA03F27B681B680A43DA623B681B684B
:10219000092B1CD97B681B68D9683B681A681346F1
:1021A0005B0013441E3B072202FA03F3DB43194092
:1021B0003B6898683B681A6813465B0013441E3BF3
:1021C00000FA03F27B681B680A43DA6019E07B6857
:1021D0001B6819693B681A6813465B0013440722A1
:1021E00002FA03F3DB4319403B6898683B681A68BE
:1021F00013465B00134400FA03F27B681B680A4332
:102200001A613B681B68102B03D03B681B68112BBD
:1022100032D17B681B681D4A934225D17B681B68BD
:102220009B6803F40003002B26D17B681B689A6827
:102230007B681B6842F400029A603B681B68102BA5
:102240001AD1134B1B68134AA2FB03239A0C1346A3
:102250009B0013445B00BB6002E0BB68013BBB60BA
:10226000BB68002BF9D107E07B689B6A43F0200232
:102270007B689A620123FB737B68002283F8242029
:10228000FB7B18461437BD4680BC704700240140D4
:102290002C00002083DE1B4380B584B000AF786043
:1022A0000023FB600023BB607B681B689B6803F016
:1022B0000103012B40D07B681B689A687B681B6810
:1022C00042F001029A601F4B1B681F4AA2FB0323C6
:1022D0009B0CBB6002E0BB68013BBB60BB68002B92
:1022E000F9D1FFF7EFFBF8601FE0FFF7EBFB0246C9
:1022F000FB68D31A022B18D97B681B689B6803F014
:102300000103012B11D07B689B6A43F010027B68AC
:102310009A627B68DB6A43F001027B68DA627B6861
:10232000002283F82420012307E07B681B689B6858
:1023300003F00103012BD8D1002318461037BD4606
:1023400080BD00BF2C00002083DE1B4380B584B01D
:1023500000AF78600023FB607B681B689B6803F01C
:102360000103012B2ED17B681B689A687B681B6870
:1023700022F001029A60FFF7A5FBF8601BE0FFF76F
:10238000A1FB0246FB68D31A022B14D97B681B6899
:102390009B6803F00103012B0DD17B689B6A43F01E
:1023A00010027B689A627B68DB6A43F001027B68FB
:1023B000DA62012307E07B681B689B6803F0010376
:1023C000012BDCD0002318461037BD4680BD00002D
:1023D00080B485B000AF78607B6803F00703FB60D2
:1023E0000C4BDB68BB60BA684FF6FF031340BB6061
:1023F000FB681A02BB68134343F0BF6343F4003326
:10240000BB60044ABB68D36000BF1437BD4680BCC4
:10241000704700BF00ED00E080B400AF044BDB6804
:102420001B0A03F007031846BD4680BC704700BF77
:1024300000ED00E080B483B000AF0346FB7197F974
:102440000730002B0BDBFB7903F01F02064997F9DD
:1024500007305B09012000FA02F241F8232000BF97
:102460000C37BD4680BC704700E100E080B483B00B
:1024700000AF03463960FB7197F90730002B0ADB88
:102480003B68DAB20C4997F907301201D2B20B441B
:1024900083F800230AE03B68DAB20849FB7903F0CD
:1024A0000F03043B1201D2B20B441A7600BF0C3763
:1024B000BD4680BC704700BF00E100E000ED00E0D9
:1024C00080B489B000AFF860B9607A60FB6803F04F
:1024D0000703FB61FB69C3F10703042B28BF042337
:1024E000BB61FB690433062B02D9FB69033B00E0A7
:1024F00000237B614FF0FF32BB6902FA03F3DA433A
:10250000BB681A407B699A404FF0FF317B6901FA42
:1025100003F3D9437B680B40134318462437BD4669
:1025200080BC704780B582B000AF78607B68013BAB
:10253000B3F1807F01D301230FE00A4A7B68013B9E
:1025400053600F214FF0FF30FFF790FF054B002243
:102550009A60044B07221A60002318460837BD46CC
:1025600080BD00BF10E000E080B582B000AF7860B1
:102570007868FFF72DFF00BF0837BD4680BD80B5E6
:1025800086B000AF0346B9607A60FB7300237B61BD
:10259000FFF742FF78617A68B9687869FFF790FFC2
:1025A000024697F90F3011461846FFF75FFF00BF4C
:1025B0001837BD4680BD80B582B000AF0346FB71C1
:1025C00097F907301846FFF735FF00BF0837BD46BB
:1025D00080BD80B582B000AF78607868FFF7A2FF59
:1025E000034618460837BD4680BD80B485B000AFAD
:1025F00078600023FB737B6893F82130DBB2022BF9
:1026000008D07B6804229A637B68002283F820202C
:10261000012320E07B681B681A687B681B6822F036
:102620000E021A607B681B681A687B681B6822F0C0
:1026300001021A607B681A6C7B68DB6B012101FA6E
:1026400002F25A607B68012283F821207B68002215
:1026500083F82020FB7B18461437BD4680BC7047AA
:1026600080B584B000AF78600023FB737B6893F87B
:102670002130DBB2022B05D07B6804229A63012350
:10268000FB7351E07B681B681A687B681B6822F04B
:102690000E021A607B681B681A687B681B6822F050
:1026A00001021A607B681B68224A934229D07B682A
:1026B0001B68214A934222D07B681B681F4A9342C1
:1026C0001AD07B681B681E4A934212D07B681B6835
:1026D0001C4A93420AD07B681B681B4A934202D172
:1026E0004FF480130EE04FF080730BE04FF4803313
:1026F00008E04FF4805305E04FF4807302E01023AC
:1027000000E00123114A53607B68012283F82120F5
:102710007B68002283F820207B685B6B002B03D052
:102720007B685B6B78689847FB7B18461037BD4623
:1027300080BD00BF080002401C0002403000024083
:1027400044000240580002406C0002400000024079
:1027500080B48BB000AF7860396000237B620023C7
:102760003B6248E101227B6A02FA03F3FB613B68AA
:102770001B68FA691340BB61BA69FB699A4240F071
:1027800037813B685B68A34A93425ED0A14A93427B
:1027900075D8A14A934258D09F4A93426FD89F4A16
:1027A000934252D09D4A934269D89D4A93424CD05D
:1027B0009B4A934263D89B4A934246D0994A93429C
:1027C0005DD8122B2AD8122B59D801A252F823F027
:1027D0004B28000825280008372800087928000819
:1027E0007F2800087F2800087F2800087F2800082D
:1027F0007F2800087F2800087F2800087F2800081D
:102800007F2800087F2800087F2800087F2800080C
:102810007F2800082D28000841280008824A93429A
:1028200013D02CE03B68DB683B6229E03B68DB6847
:1028300004333B6224E03B68DB6808333B621FE003
:102840003B68DB680C333B621AE03B689B68002BFB
:1028500002D104233B6213E03B689B68012B05D146
:1028600008233B627B68FA691A6109E008233B622E
:102870007B68FA695A6103E000233B6200E000BF15
:10288000BB69FF2B01D87B6801E07B6804337B6167
:10289000BB69FF2B02D87B6A9B0002E07B6A083B86
:1028A0009B003B617B691A680F213B6901FA03F3C6
:1028B000DB431A40396A3B6901FA03F31A437B6927
:1028C0001A603B685B6803F08053002B00F0908037
:1028D000564B9B69554A43F001039361534B9B69E7
:1028E00003F00103BB60BB68514A7B6A9B0802335B
:1028F00052F82330FB607B6A03F003039B000F2236
:1029000002FA03F3DB43FA681340FB607B68494A31
:1029100093420DD07B68484A934207D07B68474A70
:10292000934201D1022304E0032302E0012300E0EB
:1029300000237A6A02F0030292009340FA6813437C
:10294000FB603B497B6A9B080233FA6841F823200D
:102950003B685B6803F48013002B06D0384B9A6801
:102960003749BB6913438B6006E0354B9A68BB69F6
:10297000DB43334913408B603B685B6803F400130F
:10298000002B06D02E4BDA682D49BB691343CB6070
:1029900006E02B4BDA68BB69DB4329491340CB6067
:1029A0003B685B6803F40033002B06D0244B5A6865
:1029B0002349BB6913434B6006E0214B5A68BB694E
:1029C000DB431F4913404B603B685B6803F4803373
:1029D000002B06D01A4B1A681949BB6913430B60C8
:1029E00006E0174B1A68BB69DB43154913400B60BF
:1029F0007B6A01337B623B681A687B6A22FA03F3C5
:102A0000002B7FF4AFAE00BF00BF2C37BD4680BCAB
:102A1000704700BF0000321000003110000022108B
:102A200000002110000012100000111000100240E0
:102A30000000014000080140000C0140001001406E
:102A40000004014080B485B000AF78600B467B8005
:102A50007B689A687B881340002B02D00123FB73AC
:102A600001E00023FB73FB7B18461437BD4680BC96
:102A7000704780B483B000AF78600B467B8013460C
:102A80007B707B78002B03D07A887B681A6103E027
:102A90007B881A047B681A6100BF0C37BD4680BC76
:102AA000704780B485B000AF78600B467B807B6850
:102AB000DB68FB607A88FB6813401A04FB68D94323
:102AC0007B880B401A437B681A6100BF1437BD46F0
:102AD00080BC704780B582B000AF0346FB80084BD6
:102AE0005A69FB881340002B06D0054AFB885361C6
:102AF000FB88184600F006F800BF0837BD4680BDC9
:102B00000004014080B483B000AF0346FB8000BFE7
:102B10000C37BD4680BC704780B586B000AF78608A
:102B20007B68002B01D101236CE27B681B6803F0FA
:102B30000103002B00F08780924B5B6803F00C03CD
:102B4000042B0CD08F4B5B6803F00C03082B12D1C5
:102B50008C4B5B6803F48033B3F5803F0BD1894B1A
:102B60001B6803F40033002B6CD07B685B68002B80
:102B700068D1012346E27B685B68B3F5803F06D1EC
:102B8000804B1B687F4A43F4803313602EE07B68E0
:102B90005B68002B0CD17B4B1B687A4A23F4803393
:102BA0001360784B1B68774A23F4802313601DE081
:102BB0007B685B68B3F5A02F0CD1724B1B68714A20
:102BC00043F4802313606F4B1B686E4A43F48033D9
:102BD00013600BE06B4B1B686A4A23F4803313606D
:102BE000684B1B68674A23F4802313607B685B682B
:102BF000002B13D0FEF766FF386108E0FEF762FF96
:102C000002463B69D31A642B01D90323FAE15D4BD9
:102C10001B6803F40033002BF0D014E0FEF752FFE2
:102C2000386108E0FEF74EFF02463B69D31A642B79
:102C300001D90323E6E1534B1B6803F40033002B57
:102C4000F0D100E000BF7B681B6803F00203002B9B
:102C500063D04C4B5B6803F00C03002B0BD0494B4B
:102C60005B6803F00C03082B1CD1464B5B6803F434
:102C70008033002B16D1434B1B6803F00203002B5B
:102C800005D07B681B69012B01D00123BAE13D4BC4
:102C90001B6823F0F8027B685B69DB00394913434A
:102CA0000B603AE07B681B69002B20D0364B012279
:102CB0001A60FEF707FF386108E0FEF703FF0246DF
:102CC0003B69D31A022B01D903239BE12D4B1B68CF
:102CD00003F00203002BF0D02A4B1B6823F0F8020C
:102CE0007B685B69DB00274913430B6015E0264BCB
:102CF00000221A60FEF7E6FE386108E0FEF7E2FE09
:102D000002463B69D31A022B01D903237AE11D4BFA
:102D10001B6803F00203002BF0D17B681B6803F0F3
:102D20000803002B3AD07B689B69002B19D0174B06
:102D300001221A60FEF7C6FE386108E0FEF7C2FE07
:102D400002463B69D31A022B01D903235AE10D4BEA
:102D50005B6A03F00203002BF0D0012000F0CCFAF4
:102D60001CE00A4B00221A60FEF7ACFE38610FE04F
:102D7000FEF7A8FE02463B69D31A022B08D90323AB
:102D800040E100BF00100240000042428004424285
:102D90009E4B5B6A03F00203002BE9D17B681B6842
:102DA00003F00403002B00F0A6800023FB75974B73
:102DB000DB6903F08053002B0DD1944BDB69934A00
:102DC00043F08053D361914BDB6903F08053BB60C8
:102DD000BB680123FB758E4B1B6803F48073002BCB
:102DE00018D18B4B1B688A4A43F480731360FEF73B
:102DF00069FE386108E0FEF765FE02463B69D31ABA
:102E0000642B01D90323FDE0814B1B6803F480731D
:102E1000002BF0D07B68DB68012B06D17B4B1B6A53
:102E20007A4A43F0010313622DE07B68DB68002BD4
:102E30000CD1764B1B6A754A23F001031362734B66
:102E40001B6A724A23F0040313621CE07B68DB6890
:102E5000052B0CD16D4B1B6A6C4A43F004031362C3
:102E60006A4B1B6A694A43F0010313620BE0674B2C
:102E70001B6A664A23F001031362644B1B6A634AB0
:102E800023F0040313627B68DB68002B15D0FEF788
:102E900019FE38610AE0FEF715FE02463B69D31AB7
:102EA00041F28832934201D90323ABE0574B1B6AAE
:102EB00003F00203002BEED014E0FEF703FE3861AE
:102EC0000AE0FEF7FFFD02463B69D31A41F2883261
:102ED000934201D9032395E04C4B1B6A03F0020394
:102EE000002BEED1FB7D012B05D1484BDB69474A16
:102EF00023F08053D3617B68DB69002B00F0818075
:102F0000424B5B6803F00C03082B61D07B68DB69E4
:102F1000022B46D13F4B00221A60FEF7D3FD3861E9
:102F200008E0FEF7CFFD02463B69D31A022B01D918
:102F3000032367E0354B1B6803F00073002BF0D1CF
:102F40007B681B6AB3F5803F08D1304B5B6823F484
:102F500000327B689B682D4913434B602B4B5B68A9
:102F600023F474127B68196A7B685B6A0B432749F8
:102F700013434B60274B01221A60FEF7A3FD386113
:102F800008E0FEF79FFD02463B69D31A022B01D9E8
:102F9000032337E01D4B1B6803F00073002BF0D0B8
:102FA0002FE01C4B00221A60FEF78CFD386108E010
:102FB000FEF788FD02463B69D31A022B01D9032391
:102FC00020E0124B1B6803F00073002BF0D118E0D7
:102FD0007B68DB69012B01D1012313E00B4B5B689C
:102FE000FB60FB6803F480327B681B6A9A4206D15F
:102FF000FB6803F470127B685B6A9A4201D001237C
:1030000000E0002318461837BD4680BD001002407E
:10301000007000406000424280B584B000AF78602C
:1030200039607B68002B01D10123D0E06A4B1B681B
:1030300003F007033A689A4210D9674B1B6823F0E4
:10304000070265493B6813430B60634B1B6803F041
:1030500007033A689A4201D00123B8E07B681B68F5
:1030600003F00203002B20D07B681B6803F00403ED
:10307000002B05D0594B5B68584A43F4E06353601A
:103080007B681B6803F00803002B05D0534B5B687B
:10309000524A43F460535360504B5B6823F0F00294
:1030A0007B689B684D4913434B607B681B6803F04A
:1030B0000103002B40D07B685B68012B07D1474B95
:1030C0001B6803F40033002B15D101237FE07B68DC
:1030D0005B68022B07D1414B1B6803F00073002B88
:1030E00009D1012373E03D4B1B6803F00203002B61
:1030F00001D101236BE0394B5B6823F003027B684D
:103100005B68364913434B60FEF7DCFCF8600AE06D
:10311000FEF7D8FC0246FB68D31A41F2883293428C
:1031200001D9032353E02D4B5B6803F00C027B684D
:103130005B689B009A42EBD1274B1B6803F00703A7
:103140003A689A4210D2244B1B6823F007022249A6
:103150003B6813430B60204B1B6803F007033A687E
:103160009A4201D0012332E07B681B6803F004031C
:10317000002B08D0194B5B6823F4E0627B68DB68A6
:10318000164913434B607B681B6803F00803002B50
:1031900009D0124B5B6823F460527B681B69DB002B
:1031A0000E4913434B6000F021F802460B4B5B685D
:1031B0001B0903F00F030A49CB5C22FA03F3094A07
:1031C0001360094B1B681846FEF73AFC00231846AB
:1031D0001037BD4680BD00BF0020024000100240F5
:1031E000547900082C0000203000002080B487B003
:1031F00000AF0023FB600023BB6000237B61002342
:103200007B6000233B611E4B5B68FB60FB6803F047
:103210000C03042B02D0082B03D027E0194B3B6191
:1032200027E0FB689B0C03F00F03174AD35C7B601D
:10323000FB6803F48033002B10D0114B5B685B0CF0
:1032400003F00103114AD35CBB607B680D4A02FBAB
:1032500003F2BB68B2FBF3F37B6104E07B680C4ACA
:1032600002FB03F37B617B693B6102E0054B3B6141
:1032700000BF3B6918461C37BD4680BC704700BF85
:103280000010024000127A006C7900087C79000876
:1032900000093D0080B400AF024B1B681846BD46D4
:1032A00080BC70472C00002080B500AFFFF7F2FF14
:1032B0000246054B5B681B0A03F007030349CB5C1E
:1032C00022FA03F3184680BD00100240647900081A
:1032D00080B500AFFFF7DEFF0246054B5B68DB0AF7
:1032E00003F007030349CB5C22FA03F3184680BDC1
:1032F000001002406479000880B485B000AF7860A7
:103300000A4B1B680A4AA2FB03235B0A7A6802FB8A
:1033100003F3FB6000BFFB685A1EFA60002BF9D173
:1033200000BF00BF1437BD4680BC70472C00002092
:10333000D34D621080B586B000AF786000233B614A
:103340000023FB607B681B6803F00103002B7DD02A
:103350000023FB754F4BDB6903F08053002B0DD12D
:103360004C4BDB694B4A43F08053D361494BDB69DB
:1033700003F08053BB60BB680123FB75464B1B68A1
:1033800003F48073002B18D1434B1B68424A43F46B
:1033900080731360FEF796FB386108E0FEF792FB3E
:1033A00002463B69D31A642B01D903236DE03A4BE3
:1033B0001B6803F48073002BF0D0364B1B6A03F4B8
:1033C0004073FB60FB68002B2ED07B685B6803F4C6
:1033D0004073FA689A4227D02E4B1B6A23F440733D
:1033E000FB602E4B01221A602C4B00221A60294AE6
:1033F000FB681362FB6803F00103002B14D0FEF797
:1034000061FB38610AE0FEF75DFB02463B69D31AB7
:1034100041F28832934201D9032336E01D4B1B6AE7
:1034200003F00203002BEED01A4B1B6A23F4407208
:103430007B685B68174913430B62FB7D012B05D149
:10344000144BDB69134A23F08053D3617B681B68FC
:1034500003F00203002B08D00E4B5B6823F44042BC
:103460007B689B680B4913434B607B681B6803F0C8
:103470001003002B08D0074B5B6823F480027B68A5
:10348000DB68044913434B60002318461837BD46D8
:1034900080BD00BF00100240007000404004424266
:1034A00080B588B000AF786000237B610023FB61AA
:1034B00000233B610023FB600023BB617B68102B72
:1034C0000AD07B68102B00F28A807B68012B45D0E4
:1034D0007B68022B75D082E0464B5B68FB60454BF6
:1034E0001B6803F08073002B7BD0FB689B0C03F000
:1034F0000F03414AD35C3B61FB6803F48033002B2C
:1035000015D03C4B5B685B0C03F001033B4AD35C7A
:103510007B61FB6803F48033002B0DD0384A7B6954
:10352000B2FBF3F23B6902FB03F3FB6104E03B698E
:10353000344A02FB03F3FB612E4B5B6803F4800308
:10354000B3F5800F02D1FB69BB614AE0FB695B0008
:103550002D4AA2FB03235B08BB6142E0254B1B6A9B
:10356000FB60FB6803F44073B3F5807F08D1FB6810
:1035700003F00203002B03D04FF40043BB611FE0B4
:10358000FB6803F44073B3F5007F09D1194B5B6A04
:1035900003F00203002B03D049F64043BB610FE068
:1035A000FB6803F44073B3F5407F1CD1114B1B68DB
:1035B00003F40033002B16D04FF22443BB6112E01A
:1035C00011E0FFF785FE02460A4B5B689B0B03F098
:1035D000030301335B00B2FBF3F3BB6104E000BF04
:1035E00002E000BF00E000BFBB6918462037BD46BF
:1035F00080BD00BF0010024080790008907900086B
:1036000000127A0000093D00ABAAAAAA80B582B0D8
:1036100000AF78607B68002B01D1012341E07B681B
:1036200093F83D30DBB2002B06D17B68002283F893
:103630003C207868FDF76AFF7B68022283F83D2012
:103640007B681A687B6804331946104600F05EFAFE
:103650007B68012283F846207B68012283F83E20A4
:103660007B68012283F83F207B68012283F8402099
:103670007B68012283F841207B68012283F8422085
:103680007B68012283F843207B68012283F8442071
:103690007B68012283F845207B68012283F83D2066
:1036A000002318460837BD4680BD000080B485B0B1
:1036B00000AF78607B6893F83D30DBB2012B01D01E
:1036C000012335E07B68022283F83D207B681B687C
:1036D000DA687B681B6842F00102DA607B681B686D
:1036E000164A934209D07B681B68B3F1804F04D01F
:1036F0007B681B68124A934211D17B681B689B68E8
:1037000003F00703FB60FB68062B10D07B681B6887
:103710001A687B681B6842F001021A6007E07B6848
:103720001B681A687B681B6842F001021A6000235C
:1037300018461437BD4680BC704700BF002C0140BE
:103740000004004080B584B000AF78607B681B68DF
:10375000DB68FB607B681B681B69BB60BB6803F0B0
:103760000203002B20D0FB6803F00203002B1BD0C8
:103770007B681B686FF002021A617B6801221A776E
:103780007B681B689B6903F00303002B03D07868F8
:1037900000F0A1F905E0786800F094F9786800F08D
:1037A000A3F97B6800221A77BB6803F00403002B9F
:1037B00020D0FB6803F00403002B1BD07B681B6840
:1037C0006FF004021A617B6802221A777B681B681B
:1037D0009B6903F44073002B03D0786800F07BF9F9
:1037E00005E0786800F06EF9786800F07DF97B6894
:1037F00000221A77BB6803F00803002B20D0FB6877
:1038000003F00803002B1BD07B681B686FF00802D5
:103810001A617B6804221A777B681B68DB6903F0F6
:103820000303002B03D0786800F055F905E07868B1
:1038300000F048F9786800F057F97B6800221A77A1
:10384000BB6803F01003002B20D0FB6803F01003CB
:10385000002B1BD07B681B686FF010021A617B681D
:1038600008221A777B681B68DB6903F44073002B1E
:1038700003D0786800F02FF905E0786800F022F9AD
:10388000786800F031F97B6800221A77BB6803F092
:103890000103002B0CD0FB6803F00103002B07D0C1
:1038A0007B681B686FF001021A61786800F001F90B
:1038B000BB6803F08003002B0CD0FB6803F080038F
:1038C000002B07D07B681B686FF080021A61786854
:1038D00000F077FABB6803F04003002B0CD0FB68C4
:1038E00003F04003002B07D07B681B686FF0400299
:1038F0001A61786800F001F9BB6803F02003002B1F
:103900000CD0FB6803F02003002B07D07B681B68FA
:103910006FF020021A61786800F04AFA00BF103791
:10392000BD4680BD80B584B000AF786039600023AB
:10393000FB737B6893F83C30012B01D10223B4E088
:103940007B68012283F83C207B68022283F83D20BB
:103950007B681B689B68BB60BB6823F07703BB6018
:10396000BB6823F47F43BB607B681B68BA689A60BE
:103970003B681B68B3F5005F3ED0B3F5005F00F213
:103980008780B3F5805F00F08680B3F5805F7FD8D5
:10399000702B1AD0702B7BD8602B50D0602B77D82F
:1039A000502B3CD0502B73D8402B58D0402B6FD885
:1039B000302B64D0302B6BD8202B60D0202B67D8D5
:1039C000002B5CD0102B5AD062E07B6818683B68F3
:1039D00099683B685A683B68DB6800F072F97B685D
:1039E0001B689B68BB60BB6843F07703BB607B6868
:1039F0001B68BA689A604FE07B6818683B689968F2
:103A00003B685A683B68DB6800F05BF97B681B68C1
:103A10009A687B681B6842F480429A603CE07B684D
:103A200018683B6859683B68DB681A4600F0D2F8B2
:103A30007B681B685021184600F029F92CE07B6850
:103A400018683B6859683B68DB681A4600F0F0F874
:103A50007B681B686021184600F019F91CE07B6840
:103A600018683B6859683B68DB681A4600F0B2F892
:103A70007B681B684021184600F009F90CE07B6860
:103A80001A683B681B681946104600F000F903E00D
:103A90000123FB7300E000BF7B68012283F83D2017
:103AA0007B68002283F83C20FB7B18461037BD461C
:103AB00080BD80B483B000AF786000BF0C37BD46D6
:103AC00080BC704780B483B000AF786000BF0C3713
:103AD000BD4680BC704780B483B000AF786000BF43
:103AE0000C37BD4680BC704780B483B000AF7860AF
:103AF00000BF0C37BD4680BC704780B483B000AFB8
:103B0000786000BF0C37BD4680BC704780B485B07C
:103B100000AF786039607B681B68FB607B682B4A6C
:103B2000934207D07B68B3F1804F03D07B68284A6B
:103B3000934208D1FB6823F07003FB603B685B682D
:103B4000FA681343FB607B68204A934207D07B6886
:103B5000B3F1804F03D07B681D4A934208D1FB68C4
:103B600023F44073FB603B68DB68FA681343FB6037
:103B7000FB6823F080023B685B691343FB607B6852
:103B8000FA681A603B689A687B68DA623B681A6870
:103B90007B689A627B680D4A934203D13B681A693D
:103BA0007B681A637B6801225A617B681B6903F09A
:103BB0000103002B05D07B681B6923F001027B68A1
:103BC0001A6100BF1437BD4680BC7047002C01400D
:103BD0000004004080B487B000AFF860B9607A603C
:103BE000FB681B6A7B61FB681B6A23F00102FB68B0
:103BF0001A62FB689B693B613B6923F0F0033B6100
:103C00007B681B013A6913433B617B6923F00A031C
:103C10007B617A69BB6813437B61FB683A699A618F
:103C2000FB687A691A6200BF1C37BD4680BC7047CA
:103C300080B487B000AFF860B9607A60FB681B6A37
:103C40007B61FB681B6A23F01002FB681A62FB6849
:103C50009B693B613B6923F470433B617B681B03B9
:103C60003A6913433B617B6923F0A0037B61BB6826
:103C70001B017A6913437B61FB683A699A61FB68AF
:103C80007A691A6200BF1C37BD4680BC704780B499
:103C900085B000AF786039607B689B68FB60FB682B
:103CA00023F07003FB603A68FB68134343F007039B
:103CB000FB607B68FA689A6000BF1437BD4680BC21
:103CC000704780B487B000AFF860B9607A603B603D
:103CD000FB689B687B617B6923F47F437B613B6866
:103CE0001A027B681A43BB6813437A6913437B61EA
:103CF000FB687A699A6000BF1C37BD4680BC70477C
:103D000080B485B000AF786039607B6893F83C3050
:103D1000012B01D1022341E07B68012283F83C2082
:103D20007B68022283F83D207B681B685B68FB6030
:103D30007B681B689B68BB60FB6823F07003FB60BB
:103D40003B681B68FA681343FB607B681B68FA6872
:103D50005A607B681B68144A934209D07B681B68D1
:103D6000B3F1804F04D07B681B68104A93420CD19A
:103D7000BB6823F08003BB603B685B68BA68134391
:103D8000BB607B681B68BA689A607B68012283F815
:103D90003D207B68002283F83C200023184614371E
:103DA000BD4680BC704700BF002C014000040040AD
:103DB00080B483B000AF786000BF0C37BD4680BCD4
:103DC000704780B483B000AF786000BF0C37BD4649
:103DD00080BC704780B582B000AF78607B68002BF4
:103DE00001D1012342E07B6893F84130DBB2002B24
:103DF00006D17B68002283F840207868FDF7AAFB93
:103E00007B68242283F841207B681B68DA687B6822
:103E10001B6822F40052DA60786800F0C1FD7B680C
:103E20001B681A697B681B6822F490421A617B68E0
:103E30001B685A697B681B6822F02A025A617B68FA
:103E40001B68DA687B681B6842F40052DA607B68A2
:103E500000225A647B68202283F841207B6820225C
:103E600083F842207B6800225A63002318460837F3
:103E7000BD4680BD80B58AB002AFF860B9603B60D6
:103E80001346FB8000237B61FB6893F84130DBB273
:103E9000202B75D1BB68002B02D0FB88002B01D1F1
:103EA00001236EE0FB6800225A64FB68212283F83C
:103EB0004120FDF707FE7861FB68FA889A84FB6869
:103EC000FA88DA84FB689B68B3F5805F08D1FB68E9
:103ED0001B69002B04D10023FB61BB68BB6103E0BD
:103EE000BB68FB610023BB612EE03B6800937B69EC
:103EF00000228021F86800F025FB0346002B05D046
:103F0000FB68202283F8412003233AE0FB69002B61
:103F10000BD1BB691B881A46FB681B68C2F30802F9
:103F20005A60BB690233BB6107E0FB691A78FB6822
:103F30001B685A60FB690133FB61FB68DB8C9BB239
:103F4000013B9AB2FB68DA84FB68DB8C9BB2002BE6
:103F5000CBD13B6800937B6900224021F86800F0D8
:103F6000F1FA0346002B05D0FB68202283F841209C
:103F7000032306E0FB68202283F84120002300E0B1
:103F8000022318462037BD4680BD80B584B000AFFF
:103F9000F860B9601346FB80FB6893F84230DBB2EF
:103FA000202B12D1BB68002B02D0FB88002B01D143
:103FB00001230BE0FB6800221A63FB881A46B968EC
:103FC000F86800F018FB034600E00223184610379B
:103FD000BD4680BD80B5BAB000AF78607B681B6815
:103FE0001B68C7F8E4307B681B68DB68C7F8E03003
:103FF0007B681B685B69C7F8DC300023C7F8D830E2
:104000000023C7F8D430D7F8E43003F00F03C7F823
:10401000D830D7F8D830002B0FD1D7F8E43003F0E0
:104020002003002B09D0D7F8E03003F02003002B49
:1040300003D0786800F0F5FB5BE2D7F8D830002BAE
:1040400000F0DE80D7F8DC3003F00103002B06D14E
:10405000D7F8E03003F49073002B00F0D180D7F84C
:10406000E43003F00103002B0BD0D7F8E03003F469
:104070008073002B05D07B685B6C43F001027B688A
:104080005A64D7F8E43003F00403002B0BD0D7F8C0
:10409000DC3003F00103002B05D07B685B6C43F040
:1040A00002027B685A64D7F8E43003F00203002B65
:1040B0000BD0D7F8DC3003F00103002B05D07B6870
:1040C0005B6C43F004027B685A64D7F8E43003F079
:1040D0000803002B11D0D7F8E03003F02003002BA9
:1040E00005D1D7F8DC3003F00103002B05D07B6845
:1040F0005B6C43F008027B685A647B685B6C002B46
:1041000000F0F281D7F8E43003F02003002B08D050
:10411000D7F8E03003F02003002B02D0786800F0DD
:1041200080FB7B681B685B6903F04003002B14BFB6
:1041300001230023DBB2C7F8D4307B685B6C03F04B
:104140000803002B03D1D7F8D430002B4FD0786868
:1041500000F08AFA7B681B685B6903F04003002B60
:1041600041D07B681B681433C7F89C30D7F89C306B
:1041700053E8003FC7F89830D7F8983023F0400351
:10418000C7F8D0307B681B681433D7F8D020C7F845
:10419000A820C7F8A430D7F8A410D7F8A82041E881
:1041A0000023C7F8A030D7F8A030002BD9D17B6806
:1041B000DB6B002B13D07B68DB6B7E4A5A637B681A
:1041C000DB6B1846FEF74CFA0346002B16D07B68D3
:1041D000DB6B5B6B7A68D26B104698470EE07868B1
:1041E00000F09CF90AE0786800F098F906E0786839
:1041F00000F094F97B6800225A6475E100BF73E116
:104200007B681B6B012B40F04F81D7F8E43003F043
:104210001003002B00F04881D7F8E03003F01003C2
:10422000002B00F041810023BB607B681B681B688A
:10423000BB607B681B685B68BB60BB687B681B6896
:104240005B6903F04003002B00F0B6807B68DB6BFA
:104250001B685B68A7F8BE30B7F8BE30002B00F0D3
:1042600045817B689B8DB7F8BE209A4280F03E81E5
:104270007B68B7F8BE20DA857B68DB6B9B69202BF7
:1042800000F088807B681B680C33C7F88830D7F84B
:10429000883053E8003FC7F88430D7F8843023F4DF
:1042A0008073C7F8B8307B681B680C33D7F8B82028
:1042B000C7F89420C7F89030D7F89010D7F894201A
:1042C00041E80023C7F88C30D7F88C30002BD9D1C7
:1042D0007B681B6814337B677B6F53E8003F3B6749
:1042E0003B6F23F00103C7F8B4307B681B681433BD
:1042F000D7F8B420C7F88020FB67F96FD7F8802083
:1043000041E80023BB67BB6F002BE1D17B681B68D2
:1043100014333B663B6E53E8003FFB65FB6D23F0B7
:104320004003C7F8B0307B681B681433D7F8B0205F
:10433000FA66BB66B96EFA6E41E800237B667B6E57
:10434000002BE3D17B68202283F842207B68002287
:104350001A637B681B680C33FB64FB6C53E8003FFB
:10436000BB64BB6C23F01003C7F8AC307B681B68E0
:104370000C33D7F8AC20BA657B65796DBA6D41E82E
:1043800000233B653B6D002BE3D17B68DB6B18465C
:10439000FEF72BF97B6802225A637B689A8D7B6853
:1043A000DB8D9BB2D31A9BB21946786800F0BFF838
:1043B0009CE000BF2D4700087B689A8D7B68DB8DF1
:1043C0009BB2D31AA7F8CE307B68DB8D9BB2002B53
:1043D00000F08E80B7F8CE30002B00F089807B682B
:1043E0001B680C33BB63BB6B53E8003F7B637B6B89
:1043F00023F49073C7F8C8307B681B680C33D7F878
:10440000C8207A643B64396C7A6C41E80023FB6312
:10441000FB6B002BE3D17B681B6814337B627B6AE8
:1044200053E8003F3B623B6A23F00103C7F8C43006
:104430007B681B681433D7F8C4203A63FB62F96ABF
:104440003A6B41E80023BB62BB6A002BE3D17B6877
:10445000202283F842207B6800221A637B681B6855
:104460000C333B613B6953E8003FFB60FB6823F082
:104470001003C7F8C0307B681B680C33D7F8C02026
:10448000FA61BB61B969FA6941E800237B617B6924
:10449000002BE3D17B6802225A63B7F8CE3019466D
:1044A000786800F044F823E0D7F8E43003F08003A4
:1044B000002B09D0D7F8E03003F08003002B03D0A5
:1044C000786800F047F914E0D7F8E43003F04003CF
:1044D000002B0ED0D7F8E03003F04003002B08D0BB
:1044E000786800F086F904E000BF02E000BF00E059
:1044F00000BFE837BD4680BD80B483B000AF7860B0
:1045000000BF0C37BD4680BC704780B483B000AF9D
:10451000786000BF0C37BD4680BC704780B483B064
:1045200000AF786000BF0C37BD4680BC704780B4D8
:1045300083B000AF78600B467B8000BF0C37BD4670
:1045400080BC704780B586B000AFF860B9603B6052
:104550001346FB713BE03B6AB3F1FF3F37D0FDF7F9
:10456000B1FA02463B68D31A3A6A9A4202D33B6ACE
:10457000002B01D103233AE0FB681B68DB6803F0E2
:104580000403002B23D0BB68802B20D0BB68402BBA
:104590001DD0FB681B681B6803F00803082B16D1AD
:1045A00000237B61FB681B681B687B61FB681B68E1
:1045B0005B687B617B69F86800F056F8FB6808224D
:1045C0005A64FB68002283F8402001230FE0FB6857
:1045D0001B681A68BB681340BA689A420CBF012373
:1045E0000023DBB21A46FB799A42B4D00023184666
:1045F0001837BD4680BD80B485B000AFF860B960A3
:104600001346FB80FB68BA689A62FB68FA889A8551
:10461000FB68FA88DA85FB6800225A64FB6822226C
:1046200083F84220FB681B69002B07D0FB681B68DE
:10463000DA68FB681B6842F48072DA60FB681B680A
:104640005A69FB681B6842F001025A61FB681B68EB
:10465000DA68FB681B6842F02002DA600023184623
:104660001437BD4680BC704780B495B000AF786009
:104670007B681B680C337B637B6B53E8003F3B63B9
:104680003B6B23F49073FB647B681B680C33FA6C00
:104690003A64FB63F96B3A6C41E80023BB63BB6B84
:1046A000002BE5D17B681B6814333B623B6A53E8FF
:1046B000003FFB61FB6923F00103BB647B681B685F
:1046C0001433BA6CFA62BB62B96AFA6A41E8002331
:1046D0007B627B6A002BE5D17B681B6B012B19D1B8
:1046E0007B681B680C33FB60FB6853E8003FBB60D2
:1046F000BB6823F010037B647B681B680C337A6C07
:10470000BA617B617969BA6941E800233B613B6921
:10471000002BE5D17B68202283F842207B680022B1
:104720001A6300BF5437BD4680BC704780B584B063
:1047300000AF78607B685B6AFB60FB680022DA850B
:10474000FB680022DA84F868FFF7E8FE00BF103744
:10475000BD4680BD80B485B000AF78607B6893F8BB
:104760004130DBB2212B3ED17B689B68B3F5805F83
:1047700014D17B681B69002B10D17B681B6AFB601E
:10478000FB681B881A467B681B68C2F308025A60E4
:104790007B681B6A9A1C7B681A6208E07B681B6A4C
:1047A000591C7A6811621A787B681B685A607B68AA
:1047B000DB8C9BB2013B9BB27A681946D184002BFB
:1047C0000FD17B681B68DA687B681B6822F0800267
:1047D000DA607B681B68DA687B681B6842F040021D
:1047E000DA60002300E0022318461437BD4680BC7F
:1047F000704780B582B000AF78607B681B68DA686C
:104800007B681B6822F04002DA607B68202283F814
:1048100041207868FFF770FE002318460837BD4630
:1048200080BD80B58CB000AF78607B6893F8423073
:10483000DBB2222B40F0AE807B689B68B3F5805FD3
:1048400017D17B681B69002B13D10023FB627B68A7
:104850009B6ABB627B681B685B689BB2C3F30803FF
:104860009AB2BB6A1A807B689B6A9A1C7B689A62C0
:1048700026E07B689B6AFB620023BB627B689B68C7
:10488000B3F5805F07D07B689B68002B0AD17B68FB
:104890001B69002B06D17B681B685B68DAB2FB6A78
:1048A0001A7008E07B681B685B68DBB203F07F036B
:1048B000DAB2FB6A1A707B689B6A5A1C7B689A6240
:1048C0007B68DB8D9BB2013B9BB27A681946D18530
:1048D000002B5DD17B681B68DA687B681B6822F05F
:1048E0002002DA607B681B68DA687B681B6822F448
:1048F0008072DA607B681B685A697B681B6822F0EB
:1049000001025A617B68202283F842207B680022E2
:104910005A637B681B6B012B35D17B6800221A63BD
:104920007B681B680C337B617B6953E8003F3B610C
:104930003B6923F010037B627B681B680C337A6A47
:104940003A62FB61F9693A6A41E80023BB61BB69DD
:10495000002BE5D17B681B681B6803F01003102B4C
:104960000AD10023FB607B681B681B68FB607B68C7
:104970001B685B68FB60FB687B689B8D19467868E9
:10498000FFF7D5FD02E07868FFF7BFFD002302E0E6
:10499000002300E0022318463037BD4680BD0000EA
:1049A00080B584B000AF78607B681B681B6923F416
:1049B00040517B68DA687B681B680A431A617B6830
:1049C0009A687B681B691A437B685B691343BB6009
:1049D0007B681B68DB6823F4B05323F00C037A6810
:1049E0001268B9680B43D3607B681B685B6923F46A
:1049F00040717B689A697B681B680A435A617B68CF
:104A00001B682C4A934203D1FEF762FCF86002E077
:104A1000FEF74AFCF860FA6813469B0013449A00BC
:104A20001A447B685B689B00B2FBF3F3224AA2FB4B
:104A300003235B091901FA6813469B0013449A008B
:104A40001A447B685B689B00B2FBF3F21A4BA3FB32
:104A500002035B09642000FB03F3D31A1B0132330A
:104A6000154AA2FB03235B0903F0F0031944FA681B
:104A700013469B0013449A001A447B685B689B00B2
:104A8000B2FBF3F20C4BA3FB02035B09642000FBB7
:104A900003F3D31A1B013233074AA2FB03235B093A
:104AA00003F00F027B681B680A449A6000BF10374E
:104AB000BD4680BD003801401F85EB51014B186891
:104AC000704700BF3800002070B500260C4D0D4C1B
:104AD000641BA410A64209D102F0F0FE00260A4D84
:104AE0000A4C641BA410A64205D170BD55F8043BC6
:104AF00098470136EEE755F8043B98470136F2E750
:104B0000747D0008747D0008747D0008787D0008BD
:104B100003460244934200D1704703F8011BF9E7B2
:104B2000002B2DE9F0471F46BBBF03F100431F4692
:104B300000232D2388B01446129A109D1370149BE5
:104B4000DDF84CA023F02008B8F1460F05D0B8F1ED
:104B5000450F00D10135022300E0032307AA049288
:104B600006AACDE902A2CDE9003522463B4600F077
:104B70001BFDB8F1470F064602D1119BDB0722D57A
:104B8000B8F1460F06EB050910D13378302B0AD166
:104B90000022002320463946FBF706FF18B9C5F16D
:104BA0000105CAF80050DAF80030994400220023C9
:104BB00020463946FBF7F8FE08B1CDF81C903022AC
:104BC000079B4B4507D33046079B159A9B1B1360E9
:104BD00008B0BDE8F087591C07911A70F0E703464A
:104BE000F7B5002903F8022BB6BF2D222B2249422C
:104BF000092942702BDD0DF10704A4460A2791FB19
:104C0000F7F60A46A64607FB1615632A05F1300596
:104C1000314604F1FF340EF8015CF0DC3031AEF1C6
:104C2000020504F8011C2946441C61450AD30DF114
:104C30000902A2EB0E02654588BF00221344181A30
:104C400003B0F0BD11F8012B04F8012FEDE730237C
:104C500030318370C170031DF1E700002DE9F04F82
:104C600091B00C46DDF8688016461F46054601F0F7
:104C700089FA036818460993FBF76AFA00230E9332
:104C8000D8F800300A90073323F0070303F1080235
:104C900094F81890D4F800B0C8F80020D3E90023A5
:104CA000C4E91223D4E9128A2AF000430B934FF08F
:104CB000FF3240469C4B0B99FBF7A8FE70BB4FF0B0
:104CC000FF324046984B0B99FBF782FE30BB002227
:104CD000002340465146FBF771FE10B12D2384F8A6
:104CE0004330924B9248B9F1470F94BF98468046A3
:104CF00003234FF0000A23612BF0040323603346A3
:104D00002146284600970FAA00F0D4F9013040F060
:104D100090804FF0FF3011B0BDE8F08F424653460F
:104D200040465146FBF772FE48B1BAF1000FB8BFDA
:104D30002D238048B8BF84F843307F4BD3E76368A6
:104D400009F0DF015A1C42D106236360002206925B
:104D50000EAACDE904920DAA4BF4806303920DF1E3
:104D60003302CDE90132236063684246009328464E
:104D700053460B91FFF7D4FE0B99804647290D99B6
:104D800008D1C81C02DB6368994240DDA9F1020921
:104D90005FFA89F9B9F1650F1FD84A46013904F164
:104DA00050000D91FFF71BFF0E9A82461318012A3F
:104DB000236102DC2268D20701D5013323619DF80B
:104DC0003330002B9BD02D2384F8433097E74729BD
:104DD000BCD1002BBAD10123B7E7B9F1660F18D1C6
:104DE000002963680BDD216113B92268D00702D561
:104DF00001330B4423614FF0000AA165DFE713B9CB
:104E00002268D20701D50233F4E70123F2E74FF01D
:104E100067090E9B994205DB23682161D807EAD513
:104E20004B1CE7E70029CCBF0122C1F10202134469
:104E3000E0E723685A0507D42369424631462846ED
:104E4000B84701302BD164E7B9F1650F40F2DD803E
:104E5000D4E9120100220023FBF7A6FD002833D07D
:104E6000012331462846354AB84701303FF451AF57
:104E7000DDE90D239A4202DB2368D8070FD5DDE96F
:104E8000092331462846B84701303FF442AF4FF07E
:104E9000000804F11A090E9B013B434509DC236815
:104EA0009B0700F10281E0680F9B9842B8BF18464B
:104EB00031E701234A4631462846B84701303FF4DE
:104EC00028AF08F10108E6E70D9B002B38DC012331
:104ED00031462846194AB84701303FF41AAFDDE998
:104EE0000D23134302D12368D907D8D5DDE909235F
:104EF00031462846B84701303FF40BAF4FF0000968
:104F000004F11A0A0D9B5B424B4501DC0E9B94E7B2
:104F10000123524631462846B84701303FF4F9AEE6
:104F200009F10109EEE700BFFFFFEF7F9879000864
:104F30009C790008A4790008A0790008A8790008E5
:104F40000E9AA36D9A42A8BF1A46002A914637DCF2
:104F50004FF0000B29EAE97904F11A02D4F858A0BD
:104F6000AAEB09035B4533DCDDE90D239A423BDB09
:104F70002368DA0738D40E9A0D99A2EB0A03A2EB44
:104F800001099945A8BF9946B9F1000F34DC4FF0EB
:104F9000000829EAE97904F11A0ADDE90D239B1AD0
:104FA000A3EB090343457FF77AAF0123524631460D
:104FB0002846B84701303FF4ACAE08F10108ECE7F1
:104FC0001346314642462846B8470130C0D1A0E6D4
:104FD0000123314628460B92B84701303FF499AE81
:104FE0000B9A0BF1010BB9E73146DDE9092328469D
:104FF000B8470130BFD18CE64B463146284608EB16
:105000000A02B8470130C2D183E60E9A012A01DCB8
:10501000DB0737D50123424631462846B8470130E1
:105020003FF477AEDDE9092331462846B847013021
:105030003FF46FAED4E9120100220023FBF7B4FC69
:10504000D8B90E9B08F10102013B31462846B8470A
:1050500001300ED15DE601234A4631462846B84765
:1050600001303FF456AE08F101080E9B013B434569
:10507000F1DC534604F15002E0E64FF0000804F181
:105080001A09F2E701234246DFE701234A46314687
:105090002846B84701303FF43CAE08F10108E36808
:1050A0000F995B1A4345F0DCFDE64FF0000804F170
:1050B0001909F4E72DE9F047164699468A680B6905
:1050C00007469342B8BF1346336091F843200C461D
:1050D000DDF820800AB1013333602368990642BFAE
:1050E000336802333360256815F0060506D104F1F4
:1050F000190AE36832689B1AAB4228DC94F8432013
:10510000131E226818BF012392062DD44946384643
:1051100004F14302C047013020D02368E56803F062
:105120000603042B18BF002532684FF00006A36861
:1051300008BFAD1A226908BF25EAE5759342C4BFCE
:105140009B1AED181A34B5421AD1002008E0012349
:10515000524649463846C047013003D14FF0FF3030
:10516000BDE8F0870135C4E73020E11881F843003D
:105170005A1C94F845102244023382F84310C5E7C4
:105180000123224649463846C0470130E6D0013661
:10519000D9E700002DE9FF470C46277E9146782F7E
:1051A00080469A460C9904F1430207D8622F0AD828
:1051B000002F00F0D980582F00F0A48004F142069F
:1051C00084F842703AE0A7F16303152BF6D801A0EA
:1051D00050F823F02D52000841520008BD5100083C
:1051E000BD510008BD510008BD51000841520008E2
:1051F000BD510008BD510008BD510008BD51000857
:105200004F5300087152000831530008BD51000887
:10521000BD51000871530008BD51000871520008CB
:10522000BD510008BD510008395300080B6804F156
:1052300042061A1D1B680A6084F842300123A4E06C
:10524000256808682E0600F104030AD505680B607E
:10525000002D03DA2D236D4284F843300A235E4883
:1052600019E015F0400F05680B6018BF2DB2EFE78D
:105270000B682568181D0860280601D51D6802E026
:105280006906FBD51D886F2F0CBF08230A235248DF
:10529000002184F843106668002EA8BF2168A6602C
:1052A000A4BF21F0040121600DB9002E4DD0164697
:1052B000B5FBF3F103FB1157C75D06F8017D2F46DF
:1052C000BB420D46F4D9082B0BD12368DF0708D564
:1052D000236961689942DEBF302306F8013C06F17C
:1052E000FF36921B22614B4621464046CDF800A076
:1052F00003AAFFF7DFFE01304CD14FF0FF3004B0BE
:10530000BDE8F087344884F845700E68236856F885
:10531000045B1F060E6014D5D90744BF43F0200379
:1053200023601DB9236823F0200323601023AFE717
:10533000236843F0200323607823284884F845300D
:10534000E3E75E0648BFADB2E6E71646BBE70B688B
:1053500026681D1D60690D6035061B6801D5186043
:1053600002E07106FBD51880002316462361BAE7D8
:105370000B681A1D0A601E6800213046626800F042
:105380000DFF08B1801B606063682361002384F80F
:105390004330A8E73246494640462369D0470130AA
:1053A000ABD023689B0713D4E068039B9842B8BF37
:1053B0001846A4E70123324649464046D04701300B
:1053C0009BD00135E36803995B1AAB42F2DCEBE753
:1053D000002504F11906F5E7AA790008BB79000851
:1053E0000CB430B5174B0C1E1D689DB008DA8B232A
:1053F0004FF0FF302B601DB0BDE8304002B0704769
:105400004FF40273ADF814300CBF234604F1FF33A0
:10541000049307934FF6FF7302900690ADF8163091
:10542000284621AB209A02A9019301F065FB431C99
:10543000BCBF8B232B60002CDDD00022029B1A7096
:10544000D9E700BF380000200EB46FF0004100B56E
:105450009CB01DAB02900690079104910848094941
:1054600053F8042B0591006802A9019301F044FB55
:105470000022029B1A701CB05DF804EB03B0704769
:10548000380000200802FFFF2DE9F74F03690C697F
:105490000746A342C0F28380013C00F1140501F1EC
:1054A000140805EB8403019358F8243055F82420A0
:1054B00001339A42B2FBF3F64FEA840B08EB8409FE
:1054C00032D34FF0000E4046AC46F24650F8042B63
:1054D00093B206FB03E3120C4FEA134E06FB02E203
:1054E0009BB2AAEB0303DCF800A04FEA124E1FFAAE
:1054F0008AFA53441FFA82FADCF800208145CAEB8D
:10550000124202EB23429BB243EA02434FEA224A91
:105510004CF8043BDAD255F80B302BB9019B043B15
:105520009D421A462FD33C61384601F0CDF8002841
:1055300025DB28464FF0000C013658F8041BD0F844
:1055400000E08BB2ACEB03031FFA8EF213440A0C9B
:10555000C2EB1E4202EB23429BB243EA0243C14527
:105560004FEA224C40F8043BE7D255F8242005EBE3
:10557000840322B9043B9D421A460AD33C6130465B
:1055800003B0BDE8F08F1268043B002ACBD1013C88
:10559000C6E71268043B002AF0D1013CEBE700208B
:1055A000EEE70000000000002DE9F04F16461F4610
:1055B000446A99B00546CDE90467DDF8948074B972
:1055C000102000F0E3FD0246686220B9EA21AE4BEC
:1055D000AE4801F0A1FBC0E901440460C4606B6AFD
:1055E000196851B15A68012393404A608B6028467C
:1055F00000F030FE00226B6A1A603B1EAFBF002332
:10560000012223F000430593A8BFC8F80030DDF85D
:1056100014909F4BB8BFC8F8002033EA090319D192
:1056200042F20F73249A1360C9F31303334300F05B
:105630008085269B53B9974B22E0974B08930833FC
:10564000269A1360089819B0BDE8F08F914B089323
:105650000333F5E7DDE90434CDE90C34DDE90C0171
:1056600000220023FBF7A0F9804658B10123249AB9
:105670001360269B002B00F0598588481860431E54
:105680000893DFE716AB019317AB00932846DDE9DB
:105690000C2301F0C5F8C9F30A548246002C7ED0D1
:1056A000DDE90C010D9BA4F2FF34C3F3130343F0B7
:1056B0007F5141F44011CDF84C800022784BFAF72D
:1056C00053FD6BA3D3E90023FAF706FF6AA3D3E9DE
:1056D0000023FAF74BFD064620460F46FAF792FEE6
:1056E00067A3D3E90023FAF7F7FE02460B463046DC
:1056F0003946FAF73BFD06460F46FBF79DF90022B7
:105700008146002330463946FBF758F948B14846F0
:10571000FAF778FE32463B46FBF746F908B909F13D
:10572000FF39B9F1160F57D8DDE90C015D4B03EBDA
:10573000C903D3E90023FBF741F900284ED0002329
:1057400009F1FF390F93169B1C1B631E099349BF78
:10575000C4F1010300230693002354BF0693099369
:10576000B9F1000F3CDB099BCDF838904B4409930D
:1057700000230A93229B092B6CD8052BC4BF043B42
:105780002293229BC8BF0024A3F10203D8BF0124A7
:10579000032B00F28B80DFE803F02D4F4D5BDDE93A
:1057A00016431C4404F23243202BC3BFC3F1400311
:1057B00004F2124009FA03F3C3F12003C6BF26FA2C
:1057C00000F0184306FA03F0FAF70CFE0123A1F1EA
:1057D000F871013C139370E70123B3E70F90B2E730
:1057E000069BA3EB09030693C9F100030A93002368
:1057F0000E93BFE700230B93239B002B59DC4FF044
:10580000010B5B46CDF808B0CDF88CB00022686A79
:105810004260042202F114069E4241684FD9284694
:1058200000F0D8FC089000284DD102464FF4D57105
:105830001D4BCDE60123DEE700230B93239B09EBF1
:10584000030B0BF10103012B0293B8BF0123DDE72A
:105850000123F2E7012400230B9422934FF0FF3B36
:1058600000221223CDF808B02392CFE7AFF30080D7
:1058700061436F63A787D23FB3C8608B288AC63F56
:10588000FB799F501344D33FD9790008F079000881
:105890000000F07FD5790008CC790008A9790008CC
:1058A0000000F83FE87A00084F7A000801230B93C4
:1058B000D4E7DDF88CB05B46CDF808B0A6E701313F
:1058C00041605200A6E76B6A089A1A60029B0E2B91
:1058D00000F2A880002C00F0A580B9F1000F34DDA3
:1058E0009A4A09F00F0302EBC30319F4807FD3E94E
:1058F0000034CDE910344FEA291416D0DDE90C014B
:10590000934B0327D3E90823FAF710FFCDE90401ED
:1059100004F00F048E4E54B9DDE91023DDE90401D3
:10592000FAF704FFCDE9040129E00227F2E7E107D5
:1059300008D5DDE91001D6E90023FAF7CDFDCDE960
:105940001001013764100836E5E700F0A580DDE9B5
:105950000C01C9F100047D4B04F00F0203EBC203FC
:10596000D3E90023FAF7B8FD02270023CDE90401AB
:10597000774E2411002C40F08480002BD2D10F9B55
:10598000002B00F08B80DDE90434CDE91034DDE933
:10599000100100226F4BFBF711F800287ED0029B0C
:1059A000002B7BD0BBF1000F38DDDDE910010022B8
:1059B000694BFAF791FD5C46CDE9040109F1FF3826
:1059C00001373846FAF71EFDDDE90423FAF784FDB6
:1059D0000022624BFAF7CAFBA1F15076CDE9100123
:1059E0001196002C5DD1DDE9040100225C4BFAF731
:1059F000BBFB02460B46CDE904233346109AFAF767
:105A0000FBFF002840F09E82DDE90401109A06F1B8
:105A10000043FAF7D3FF002840F09282DDE90C340E
:105A2000CDE90434179B002BC0F25381B9F10E0F5E
:105A300000F34F81454B03EBC903D3E90034CDE9B3
:105A40000634239B002B80F2DB80029B002B00F3AB
:105A5000D78040F07482DDE906010022404BFAF75E
:105A60003BFDDDE90423FAF7BDFF029C2646002832
:105A700040F04A823123089F09F1010907F8013BF0
:105A800046E2E20705D5D6E90023FAF725FD012312
:105A90000137641008366DE7022770E7C846029C9C
:105AA0008FE70899294B214412910B9903EBC4030A
:105AB000DDE9106753E90223002955D00020294968
:105AC000FAF734FE3B463246FAF74EFBCDE91001B9
:105AD000089FDDE90401FAF7AFFF0446FAF792FCEC
